{
  "address": "0x854D562eBACCDDa7469339B083aD321251ec3034",
  "abi": [
    {
      "anonymous": false,
      "inputs": [
        {
          "indexed": true,
          "internalType": "address",
          "name": "owner",
          "type": "address"
        },
        {
          "indexed": true,
          "internalType": "address",
          "name": "collectionAddress",
          "type": "address"
        },
        {
          "indexed": false,
          "internalType": "uint256",
          "name": "tokenId",
          "type": "uint256"
        },
        {
          "indexed": false,
          "internalType": "uint256",
          "name": "Price",
          "type": "uint256"
        },
        {
          "indexed": false,
          "internalType": "bool",
          "name": "aproval",
          "type": "bool"
        }
      ],
      "name": "itemCreation",
      "type": "event"
    },
    {
      "anonymous": false,
      "inputs": [
        {
          "indexed": true,
          "internalType": "address",
          "name": "owner",
          "type": "address"
        },
        {
          "indexed": true,
          "internalType": "address",
          "name": "collectionAddress",
          "type": "address"
        },
        {
          "indexed": false,
          "internalType": "uint256",
          "name": "tokenId",
          "type": "uint256"
        }
      ],
      "name": "listingCancled",
      "type": "event"
    },
    {
      "anonymous": false,
      "inputs": [
        {
          "indexed": true,
          "internalType": "address",
          "name": "owner",
          "type": "address"
        },
        {
          "indexed": true,
          "internalType": "address",
          "name": "collectionAddress",
          "type": "address"
        },
        {
          "indexed": false,
          "internalType": "uint256",
          "name": "tokenId",
          "type": "uint256"
        },
        {
          "indexed": false,
          "internalType": "uint256",
          "name": "Price",
          "type": "uint256"
        }
      ],
      "name": "listingSold",
      "type": "event"
    },
    {
      "anonymous": false,
      "inputs": [
        {
          "indexed": true,
          "internalType": "address",
          "name": "owner",
          "type": "address"
        },
        {
          "indexed": true,
          "internalType": "address",
          "name": "collectionAddress",
          "type": "address"
        },
        {
          "indexed": false,
          "internalType": "uint256",
          "name": "tokenId",
          "type": "uint256"
        },
        {
          "indexed": false,
          "internalType": "uint256",
          "name": "listingPrice",
          "type": "uint256"
        }
      ],
      "name": "newListingCreated",
      "type": "event"
    },
    {
      "anonymous": false,
      "inputs": [
        {
          "indexed": true,
          "internalType": "address",
          "name": "offerer",
          "type": "address"
        },
        {
          "indexed": true,
          "internalType": "address",
          "name": "collectionAddress",
          "type": "address"
        },
        {
          "indexed": false,
          "internalType": "uint256",
          "name": "tokenId",
          "type": "uint256"
        },
        {
          "indexed": false,
          "internalType": "uint256",
          "name": "Price",
          "type": "uint256"
        },
        {
          "indexed": false,
          "internalType": "uint256",
          "name": "Endtime",
          "type": "uint256"
        }
      ],
      "name": "offerAccepted",
      "type": "event"
    },
    {
      "anonymous": false,
      "inputs": [
        {
          "indexed": true,
          "internalType": "address",
          "name": "offerer",
          "type": "address"
        },
        {
          "indexed": true,
          "internalType": "address",
          "name": "collectionAddress",
          "type": "address"
        },
        {
          "indexed": false,
          "internalType": "uint256",
          "name": "tokenId",
          "type": "uint256"
        },
        {
          "indexed": false,
          "internalType": "uint256",
          "name": "Price",
          "type": "uint256"
        },
        {
          "indexed": false,
          "internalType": "uint256",
          "name": "Endtime",
          "type": "uint256"
        }
      ],
      "name": "offerCreated",
      "type": "event"
    },
    {
      "anonymous": false,
      "inputs": [
        {
          "indexed": true,
          "internalType": "address",
          "name": "offerer",
          "type": "address"
        },
        {
          "indexed": true,
          "internalType": "address",
          "name": "collectionAddress",
          "type": "address"
        },
        {
          "indexed": false,
          "internalType": "uint256",
          "name": "tokenId",
          "type": "uint256"
        },
        {
          "indexed": false,
          "internalType": "uint256",
          "name": "Price",
          "type": "uint256"
        },
        {
          "indexed": false,
          "internalType": "uint256",
          "name": "Endtime",
          "type": "uint256"
        }
      ],
      "name": "offerDeleted",
      "type": "event"
    },
    {
      "anonymous": false,
      "inputs": [
        {
          "indexed": true,
          "internalType": "address",
          "name": "offerer",
          "type": "address"
        },
        {
          "indexed": true,
          "internalType": "address",
          "name": "collectionAddress",
          "type": "address"
        },
        {
          "indexed": false,
          "internalType": "uint256",
          "name": "tokenId",
          "type": "uint256"
        },
        {
          "indexed": false,
          "internalType": "uint256",
          "name": "Price",
          "type": "uint256"
        },
        {
          "indexed": false,
          "internalType": "uint256",
          "name": "Endtime",
          "type": "uint256"
        }
      ],
      "name": "offerUpdated",
      "type": "event"
    },
    {
      "anonymous": false,
      "inputs": [
        {
          "indexed": true,
          "internalType": "address",
          "name": "owner",
          "type": "address"
        },
        {
          "indexed": true,
          "internalType": "address",
          "name": "collectionAddress",
          "type": "address"
        },
        {
          "indexed": false,
          "internalType": "uint256",
          "name": "tokenId",
          "type": "uint256"
        },
        {
          "indexed": false,
          "internalType": "uint256",
          "name": "listingPrice",
          "type": "uint256"
        }
      ],
      "name": "updatedListing",
      "type": "event"
    },
    {
      "inputs": [
        {
          "internalType": "address",
          "name": "offerer",
          "type": "address"
        },
        {
          "internalType": "address",
          "name": "collectionAddress",
          "type": "address"
        },
        {
          "internalType": "uint256",
          "name": "tokenId",
          "type": "uint256"
        }
      ],
      "name": "acceptOffer",
      "outputs": [],
      "stateMutability": "payable",
      "type": "function"
    },
    {
      "inputs": [
        {
          "internalType": "address",
          "name": "collectionAddress",
          "type": "address"
        },
        {
          "internalType": "uint256",
          "name": "tokenId",
          "type": "uint256"
        }
      ],
      "name": "buyListing",
      "outputs": [],
      "stateMutability": "payable",
      "type": "function"
    },
    {
      "inputs": [
        {
          "internalType": "address",
          "name": "collectionAddress",
          "type": "address"
        },
        {
          "internalType": "uint256",
          "name": "tokenId",
          "type": "uint256"
        }
      ],
      "name": "cancleListing",
      "outputs": [],
      "stateMutability": "nonpayable",
      "type": "function"
    },
    {
      "inputs": [
        {
          "internalType": "address",
          "name": "collectionAddress",
          "type": "address"
        },
        {
          "internalType": "uint256",
          "name": "tokenId",
          "type": "uint256"
        }
      ],
      "name": "cancleOffer",
      "outputs": [],
      "stateMutability": "payable",
      "type": "function"
    },
    {
      "inputs": [
        {
          "internalType": "address",
          "name": "collectionAddress",
          "type": "address"
        },
        {
          "internalType": "uint256",
          "name": "tokenId",
          "type": "uint256"
        },
        {
          "internalType": "uint256",
          "name": "listingPrice",
          "type": "uint256"
        }
      ],
      "name": "createListing",
      "outputs": [],
      "stateMutability": "nonpayable",
      "type": "function"
    },
    {
      "inputs": [
        {
          "internalType": "address",
          "name": "collectionAddress",
          "type": "address"
        },
        {
          "internalType": "uint256",
          "name": "tokenId",
          "type": "uint256"
        },
        {
          "internalType": "uint256",
          "name": "Price",
          "type": "uint256"
        },
        {
          "internalType": "uint256",
          "name": "duration",
          "type": "uint256"
        }
      ],
      "name": "createOffer",
      "outputs": [],
      "stateMutability": "payable",
      "type": "function"
    },
    {
      "inputs": [
        {
          "internalType": "address",
          "name": "offerer",
          "type": "address"
        },
        {
          "internalType": "address",
          "name": "collectionAddress",
          "type": "address"
        },
        {
          "internalType": "uint256",
          "name": "tokenId",
          "type": "uint256"
        }
      ],
      "name": "cronJobOfferGarbageClean",
      "outputs": [],
      "stateMutability": "nonpayable",
      "type": "function"
    },
    {
      "inputs": [
        {
          "internalType": "address",
          "name": "offerer",
          "type": "address"
        },
        {
          "internalType": "address",
          "name": "collectionAddress",
          "type": "address"
        },
        {
          "internalType": "uint256",
          "name": "tokenId",
          "type": "uint256"
        }
      ],
      "name": "declineOffer",
      "outputs": [],
      "stateMutability": "nonpayable",
      "type": "function"
    },
    {
      "inputs": [
        {
          "internalType": "address",
          "name": "collectionAddress",
          "type": "address"
        },
        {
          "internalType": "uint256",
          "name": "tokenId",
          "type": "uint256"
        },
        {
          "internalType": "uint256",
          "name": "listingPrice",
          "type": "uint256"
        }
      ],
      "name": "updateListing",
      "outputs": [],
      "stateMutability": "nonpayable",
      "type": "function"
    },
    {
      "inputs": [
        {
          "internalType": "address",
          "name": "collectionAddress",
          "type": "address"
        },
        {
          "internalType": "uint256",
          "name": "tokenId",
          "type": "uint256"
        },
        {
          "internalType": "uint256",
          "name": "Price",
          "type": "uint256"
        },
        {
          "internalType": "uint256",
          "name": "duration",
          "type": "uint256"
        }
      ],
      "name": "updateOffer",
      "outputs": [],
      "stateMutability": "payable",
      "type": "function"
    }
  ],
  "transactionHash": "0xe739b1812216863fc9c19cebed25c6851afeabfee293876b0c5f4ae5f6d38b7c",
  "args": [],
  "numDeployments": 2,
  "solcInputHash": "0dc057d541d2741ecfde7a62b184e83d",
  "bytecode": "0x608060405234801561001057600080fd5b5061369b806100206000396000f3fe6080604052600436106100915760003560e01c8063bec43aed11610059578063bec43aed1461013c578063c7fff71914610165578063d898aaf214610181578063e66925a41461019d578063f772adf1146101c657610091565b80630c97fa64146100965780631821e7c6146100b257806324780c56146100ce5780632818f606146100f75780638828929014610113575b600080fd5b6100b060048036038101906100ab91906129f4565b6101ef565b005b6100cc60048036038101906100c79190612a34565b610640565b005b3480156100da57600080fd5b506100f560048036038101906100f09190612a87565b610b9a565b005b610111600480360381019061010c91906129f4565b611054565b005b34801561011f57600080fd5b5061013a60048036038101906101359190612a34565b6113d7565b005b34801561014857600080fd5b50610163600480360381019061015e9190612a34565b611758565b005b61017f600480360381019061017a9190612ada565b611a4f565b005b61019b60048036038101906101969190612ada565b611e06565b005b3480156101a957600080fd5b506101c460048036038101906101bf91906129f4565b6121be565b005b3480156101d257600080fd5b506101ed60048036038101906101e89190612a87565b61242b565b005b60008273ffffffffffffffffffffffffffffffffffffffff16636352211e836040518263ffffffff1660e01b815260040161022a9190612b50565b602060405180830381865afa158015610247573d6000803e3d6000fd5b505050506040513d601f19601f8201168201806040525081019061026b9190612b80565b905060008060008373ffffffffffffffffffffffffffffffffffffffff1673ffffffffffffffffffffffffffffffffffffffff16815260200190815260200160002060008573ffffffffffffffffffffffffffffffffffffffff1673ffffffffffffffffffffffffffffffffffffffff1681526020019081526020016000206000848152602001908152602001600020604051806040016040529081600082015481526020016001820160009054906101000a900460ff1615151515815250509050600073ffffffffffffffffffffffffffffffffffffffff168273ffffffffffffffffffffffffffffffffffffffff160361039c576040517f08c379a000000000000000000000000000000000000000000000000000000000815260040161039390612c30565b60405180910390fd5b60008160000151036103e3576040517f08c379a00000000000000000000000000000000000000000000000000000000081526004016103da90612cc2565b60405180910390fd5b60011515816020015115151461042e576040517f08c379a000000000000000000000000000000000000000000000000000000000815260040161042590612d7a565b60405180910390fd5b8060000151341015610475576040517f08c379a000000000000000000000000000000000000000000000000000000000815260040161046c90612e0c565b60405180910390fd5b8373ffffffffffffffffffffffffffffffffffffffff166323b872dd8333866040518463ffffffff1660e01b81526004016104b293929190612e3b565b600060405180830381600087803b1580156104cc57600080fd5b505af11580156104e0573d6000803e3d6000fd5b505050508173ffffffffffffffffffffffffffffffffffffffff166108fc349081150290604051600060405180830381858888f1935050505015801561052a573d6000803e3d6000fd5b5060008060003373ffffffffffffffffffffffffffffffffffffffff1673ffffffffffffffffffffffffffffffffffffffff16815260200190815260200160002060008673ffffffffffffffffffffffffffffffffffffffff1673ffffffffffffffffffffffffffffffffffffffff168152602001908152602001600020600085815260200190815260200160002060010160006101000a81548160ff0219169083151502179055508373ffffffffffffffffffffffffffffffffffffffff163373ffffffffffffffffffffffffffffffffffffffff167f40e5f6158086a011d9ea71b243b2186eb0db1d65009b391204d6b63c30cc88be8534604051610632929190612e72565b60405180910390a350505050565b60008273ffffffffffffffffffffffffffffffffffffffff16636352211e836040518263ffffffff1660e01b815260040161067b9190612b50565b602060405180830381865afa158015610698573d6000803e3d6000fd5b505050506040513d601f19601f820116820180604052508101906106bc9190612b80565b9050600073ffffffffffffffffffffffffffffffffffffffff168173ffffffffffffffffffffffffffffffffffffffff160361072d576040517f08c379a000000000000000000000000000000000000000000000000000000000815260040161072490612c30565b60405180910390fd5b3373ffffffffffffffffffffffffffffffffffffffff168173ffffffffffffffffffffffffffffffffffffffff161461079b576040517f08c379a000000000000000000000000000000000000000000000000000000000815260040161079290612f0d565b60405180910390fd5b8273ffffffffffffffffffffffffffffffffffffffff1663e985e9c533306040518363ffffffff1660e01b81526004016107d6929190612f2d565b602060405180830381865afa1580156107f3573d6000803e3d6000fd5b505050506040513d601f19601f820116820180604052508101906108179190612f8e565b806108c657503073ffffffffffffffffffffffffffffffffffffffff168373ffffffffffffffffffffffffffffffffffffffff1663081812fc846040518263ffffffff1660e01b815260040161086d9190612b50565b602060405180830381865afa15801561088a573d6000803e3d6000fd5b505050506040513d601f19601f820116820180604052508101906108ae9190612b80565b73ffffffffffffffffffffffffffffffffffffffff16145b610905576040517f08c379a00000000000000000000000000000000000000000000000000000000081526004016108fc9061302d565b60405180910390fd5b8273ffffffffffffffffffffffffffffffffffffffff166323b872dd3386856040518463ffffffff1660e01b815260040161094293929190612e3b565b600060405180830381600087803b15801561095c57600080fd5b505af1158015610970573d6000803e3d6000fd5b505050506000600160008673ffffffffffffffffffffffffffffffffffffffff1673ffffffffffffffffffffffffffffffffffffffff16815260200190815260200160002060008573ffffffffffffffffffffffffffffffffffffffff1673ffffffffffffffffffffffffffffffffffffffff16815260200190815260200160002060008481526020019081526020016000206040518060400160405290816000820154815260200160018201548152505090508173ffffffffffffffffffffffffffffffffffffffff166108fc670de0b6b3a76400008360000151610a56919061307c565b9081150290604051600060405180830381858888f19350505050158015610a81573d6000803e3d6000fd5b508373ffffffffffffffffffffffffffffffffffffffff168573ffffffffffffffffffffffffffffffffffffffff167fb341f5e7688c6d83dfb9961e8478ae274ef21b8999aad0d6279d8d3f44addd098584600001518560200151604051610aeb939291906130be565b60405180910390a3600160008673ffffffffffffffffffffffffffffffffffffffff1673ffffffffffffffffffffffffffffffffffffffff16815260200190815260200160002060008573ffffffffffffffffffffffffffffffffffffffff1673ffffffffffffffffffffffffffffffffffffffff1681526020019081526020016000206000848152602001908152602001600020600080820160009055600182016000905550505050505050565b60008373ffffffffffffffffffffffffffffffffffffffff16636352211e846040518263ffffffff1660e01b8152600401610bd59190612b50565b602060405180830381865afa158015610bf2573d6000803e3d6000fd5b505050506040513d601f19601f82011682018060405250810190610c169190612b80565b9050600073ffffffffffffffffffffffffffffffffffffffff168173ffffffffffffffffffffffffffffffffffffffff1603610c87576040517f08c379a0000000000000000000000000000000000000000000000000000000008152600401610c7e90612c30565b60405180910390fd5b3373ffffffffffffffffffffffffffffffffffffffff168173ffffffffffffffffffffffffffffffffffffffff1614610cf5576040517f08c379a0000000000000000000000000000000000000000000000000000000008152600401610cec90612f0d565b60405180910390fd5b8373ffffffffffffffffffffffffffffffffffffffff1663e985e9c533306040518363ffffffff1660e01b8152600401610d30929190612f2d565b602060405180830381865afa158015610d4d573d6000803e3d6000fd5b505050506040513d601f19601f82011682018060405250810190610d719190612f8e565b80610e2057503073ffffffffffffffffffffffffffffffffffffffff168473ffffffffffffffffffffffffffffffffffffffff1663081812fc856040518263ffffffff1660e01b8152600401610dc79190612b50565b602060405180830381865afa158015610de4573d6000803e3d6000fd5b505050506040513d601f19601f82011682018060405250810190610e089190612b80565b73ffffffffffffffffffffffffffffffffffffffff16145b610e5f576040517f08c379a0000000000000000000000000000000000000000000000000000000008152600401610e5690613167565b60405180910390fd5b60008060003373ffffffffffffffffffffffffffffffffffffffff1673ffffffffffffffffffffffffffffffffffffffff16815260200190815260200160002060008673ffffffffffffffffffffffffffffffffffffffff1673ffffffffffffffffffffffffffffffffffffffff1681526020019081526020016000206000858152602001908152602001600020604051806040016040529081600082015481526020016001820160009054906101000a900460ff16151515158152505090506000816000015103610f3d57610f3885858560016127d9565b610fe6565b60016000803373ffffffffffffffffffffffffffffffffffffffff1673ffffffffffffffffffffffffffffffffffffffff16815260200190815260200160002060008773ffffffffffffffffffffffffffffffffffffffff1673ffffffffffffffffffffffffffffffffffffffff168152602001908152602001600020600086815260200190815260200160002060010160006101000a81548160ff0219169083151502179055505b8473ffffffffffffffffffffffffffffffffffffffff163373ffffffffffffffffffffffffffffffffffffffff167fa19587a42ce29a49cd5688dc4195852bd3715cfd106457f0efa941f4242619178686604051611045929190612e72565b60405180910390a35050505050565b6000600160003373ffffffffffffffffffffffffffffffffffffffff1673ffffffffffffffffffffffffffffffffffffffff16815260200190815260200160002060008473ffffffffffffffffffffffffffffffffffffffff1673ffffffffffffffffffffffffffffffffffffffff16815260200190815260200160002060008381526020019081526020016000206000015403611127576040517f08c379a000000000000000000000000000000000000000000000000000000000815260040161111e906131d3565b60405180910390fd5b3373ffffffffffffffffffffffffffffffffffffffff166108fc670de0b6b3a7640000600160003373ffffffffffffffffffffffffffffffffffffffff1673ffffffffffffffffffffffffffffffffffffffff16815260200190815260200160002060008673ffffffffffffffffffffffffffffffffffffffff1673ffffffffffffffffffffffffffffffffffffffff1681526020019081526020016000206000858152602001908152602001600020600001546111e5919061307c565b9081150290604051600060405180830381858888f19350505050158015611210573d6000803e3d6000fd5b506000600160003373ffffffffffffffffffffffffffffffffffffffff1673ffffffffffffffffffffffffffffffffffffffff16815260200190815260200160002060008473ffffffffffffffffffffffffffffffffffffffff1673ffffffffffffffffffffffffffffffffffffffff16815260200190815260200160002060008381526020019081526020016000206040518060400160405290816000820154815260200160018201548152505090508273ffffffffffffffffffffffffffffffffffffffff163373ffffffffffffffffffffffffffffffffffffffff167f08660f588fc25793ac41742db995a846d8c9edaf116f11f92f983909eb74245e848460000151856020015160405161132a939291906130be565b60405180910390a3600160003373ffffffffffffffffffffffffffffffffffffffff1673ffffffffffffffffffffffffffffffffffffffff16815260200190815260200160002060008473ffffffffffffffffffffffffffffffffffffffff1673ffffffffffffffffffffffffffffffffffffffff168152602001908152602001600020600083815260200190815260200160002060008082016000905560018201600090555050505050565b60008273ffffffffffffffffffffffffffffffffffffffff16636352211e836040518263ffffffff1660e01b81526004016114129190612b50565b602060405180830381865afa15801561142f573d6000803e3d6000fd5b505050506040513d601f19601f820116820180604052508101906114539190612b80565b9050600073ffffffffffffffffffffffffffffffffffffffff168173ffffffffffffffffffffffffffffffffffffffff16036114c4576040517f08c379a00000000000000000000000000000000000000000000000000000000081526004016114bb90612c30565b60405180910390fd5b3373ffffffffffffffffffffffffffffffffffffffff168173ffffffffffffffffffffffffffffffffffffffff1614611532576040517f08c379a000000000000000000000000000000000000000000000000000000000815260040161152990612f0d565b60405180910390fd5b6000600160008673ffffffffffffffffffffffffffffffffffffffff1673ffffffffffffffffffffffffffffffffffffffff16815260200190815260200160002060008573ffffffffffffffffffffffffffffffffffffffff1673ffffffffffffffffffffffffffffffffffffffff16815260200190815260200160002060008481526020019081526020016000206040518060400160405290816000820154815260200160018201548152505090508473ffffffffffffffffffffffffffffffffffffffff166108fc670de0b6b3a76400008360000151611614919061307c565b9081150290604051600060405180830381858888f1935050505015801561163f573d6000803e3d6000fd5b508373ffffffffffffffffffffffffffffffffffffffff168573ffffffffffffffffffffffffffffffffffffffff167f08660f588fc25793ac41742db995a846d8c9edaf116f11f92f983909eb74245e85846000015185602001516040516116a9939291906130be565b60405180910390a3600160008673ffffffffffffffffffffffffffffffffffffffff1673ffffffffffffffffffffffffffffffffffffffff16815260200190815260200160002060008573ffffffffffffffffffffffffffffffffffffffff1673ffffffffffffffffffffffffffffffffffffffff1681526020019081526020016000206000848152602001908152602001600020600080820160009055600182016000905550505050505050565b42600160003373ffffffffffffffffffffffffffffffffffffffff1673ffffffffffffffffffffffffffffffffffffffff16815260200190815260200160002060008473ffffffffffffffffffffffffffffffffffffffff1673ffffffffffffffffffffffffffffffffffffffff1681526020019081526020016000206000838152602001908152602001600020600101541061182a576040517f08c379a00000000000000000000000000000000000000000000000000000000081526004016118219061323f565b60405180910390fd5b6000600160008573ffffffffffffffffffffffffffffffffffffffff1673ffffffffffffffffffffffffffffffffffffffff16815260200190815260200160002060008473ffffffffffffffffffffffffffffffffffffffff1673ffffffffffffffffffffffffffffffffffffffff16815260200190815260200160002060008381526020019081526020016000206040518060400160405290816000820154815260200160018201548152505090508373ffffffffffffffffffffffffffffffffffffffff166108fc670de0b6b3a7640000836000015161190c919061307c565b9081150290604051600060405180830381858888f19350505050158015611937573d6000803e3d6000fd5b508273ffffffffffffffffffffffffffffffffffffffff163373ffffffffffffffffffffffffffffffffffffffff167f08660f588fc25793ac41742db995a846d8c9edaf116f11f92f983909eb74245e84846000015185602001516040516119a1939291906130be565b60405180910390a3600160003373ffffffffffffffffffffffffffffffffffffffff1673ffffffffffffffffffffffffffffffffffffffff16815260200190815260200160002060008473ffffffffffffffffffffffffffffffffffffffff1673ffffffffffffffffffffffffffffffffffffffff16815260200190815260200160002060008381526020019081526020016000206000808201600090556001820160009055505050505050565b670de0b6b3a764000082611a63919061307c565b3414611aa4576040517f08c379a0000000000000000000000000000000000000000000000000000000008152600401611a9b906132d1565b60405180910390fd5b60008473ffffffffffffffffffffffffffffffffffffffff16636352211e856040518263ffffffff1660e01b8152600401611adf9190612b50565b602060405180830381865afa158015611afc573d6000803e3d6000fd5b505050506040513d601f19601f82011682018060405250810190611b209190612b80565b9050620151808211611b67576040517f08c379a0000000000000000000000000000000000000000000000000000000008152600401611b5e90613363565b60405180910390fd5b8073ffffffffffffffffffffffffffffffffffffffff163373ffffffffffffffffffffffffffffffffffffffff1603611bd5576040517f08c379a0000000000000000000000000000000000000000000000000000000008152600401611bcc906133cf565b60405180910390fd5b6000600160003373ffffffffffffffffffffffffffffffffffffffff1673ffffffffffffffffffffffffffffffffffffffff16815260200190815260200160002060008773ffffffffffffffffffffffffffffffffffffffff1673ffffffffffffffffffffffffffffffffffffffff168152602001908152602001600020600086815260200190815260200160002060405180604001604052908160008201548152602001600182015481525050905083816000015103611ccb576040517f08c379a0000000000000000000000000000000000000000000000000000000008152600401611cc290613461565b60405180910390fd5b60008342611cd99190613481565b9050604051806040016040528086815260200182815250600160003373ffffffffffffffffffffffffffffffffffffffff1673ffffffffffffffffffffffffffffffffffffffff16815260200190815260200160002060008973ffffffffffffffffffffffffffffffffffffffff1673ffffffffffffffffffffffffffffffffffffffff168152602001908152602001600020600088815260200190815260200160002060008201518160000155602082015181600101559050508673ffffffffffffffffffffffffffffffffffffffff163373ffffffffffffffffffffffffffffffffffffffff167fc50bb45c5c66235d55cfbf8398fc48cf49e438f28db79b8e9a965db086ae5d09888885604051611df5939291906130be565b60405180910390a350505050505050565b670de0b6b3a764000082611e1a919061307c565b3414611e5b576040517f08c379a0000000000000000000000000000000000000000000000000000000008152600401611e52906132d1565b60405180910390fd5b60008473ffffffffffffffffffffffffffffffffffffffff16636352211e856040518263ffffffff1660e01b8152600401611e969190612b50565b602060405180830381865afa158015611eb3573d6000803e3d6000fd5b505050506040513d601f19601f82011682018060405250810190611ed79190612b80565b9050620151808211611f1e576040517f08c379a0000000000000000000000000000000000000000000000000000000008152600401611f1590613363565b60405180910390fd5b8073ffffffffffffffffffffffffffffffffffffffff163373ffffffffffffffffffffffffffffffffffffffff1603611f8c576040517f08c379a0000000000000000000000000000000000000000000000000000000008152600401611f83906133cf565b60405180910390fd5b6000600160003373ffffffffffffffffffffffffffffffffffffffff1673ffffffffffffffffffffffffffffffffffffffff16815260200190815260200160002060008773ffffffffffffffffffffffffffffffffffffffff1673ffffffffffffffffffffffffffffffffffffffff16815260200190815260200160002060008681526020019081526020016000206040518060400160405290816000820154815260200160018201548152505090506000816000015114612083576040517f08c379a000000000000000000000000000000000000000000000000000000000815260040161207a90613527565b60405180910390fd5b600083426120919190613481565b9050604051806040016040528086815260200182815250600160003373ffffffffffffffffffffffffffffffffffffffff1673ffffffffffffffffffffffffffffffffffffffff16815260200190815260200160002060008973ffffffffffffffffffffffffffffffffffffffff1673ffffffffffffffffffffffffffffffffffffffff168152602001908152602001600020600088815260200190815260200160002060008201518160000155602082015181600101559050508673ffffffffffffffffffffffffffffffffffffffff163373ffffffffffffffffffffffffffffffffffffffff167fa92e376668792c7bd4756637aa55b42d023e8f0d973104759d0144445daaf7908888856040516121ad939291906130be565b60405180910390a350505050505050565b60008273ffffffffffffffffffffffffffffffffffffffff16636352211e836040518263ffffffff1660e01b81526004016121f99190612b50565b602060405180830381865afa158015612216573d6000803e3d6000fd5b505050506040513d601f19601f8201168201806040525081019061223a9190612b80565b9050600073ffffffffffffffffffffffffffffffffffffffff168173ffffffffffffffffffffffffffffffffffffffff16036122ab576040517f08c379a00000000000000000000000000000000000000000000000000000000081526004016122a290612c30565b60405180910390fd5b3373ffffffffffffffffffffffffffffffffffffffff168173ffffffffffffffffffffffffffffffffffffffff1614612319576040517f08c379a000000000000000000000000000000000000000000000000000000000815260040161231090612f0d565b60405180910390fd5b60008060003373ffffffffffffffffffffffffffffffffffffffff1673ffffffffffffffffffffffffffffffffffffffff16815260200190815260200160002060008573ffffffffffffffffffffffffffffffffffffffff1673ffffffffffffffffffffffffffffffffffffffff168152602001908152602001600020600084815260200190815260200160002060010160006101000a81548160ff0219169083151502179055508273ffffffffffffffffffffffffffffffffffffffff163373ffffffffffffffffffffffffffffffffffffffff167f84d6ebcf83e7020b761ccd1bf82e31a20c8d557d852fe4dcef4e7c0f232b23868460405161241e9190612b50565b60405180910390a3505050565b60008373ffffffffffffffffffffffffffffffffffffffff16636352211e846040518263ffffffff1660e01b81526004016124669190612b50565b602060405180830381865afa158015612483573d6000803e3d6000fd5b505050506040513d601f19601f820116820180604052508101906124a79190612b80565b9050600073ffffffffffffffffffffffffffffffffffffffff168173ffffffffffffffffffffffffffffffffffffffff1603612518576040517f08c379a000000000000000000000000000000000000000000000000000000000815260040161250f90612c30565b60405180910390fd5b3373ffffffffffffffffffffffffffffffffffffffff168173ffffffffffffffffffffffffffffffffffffffff1614612586576040517f08c379a000000000000000000000000000000000000000000000000000000000815260040161257d90612f0d565b60405180910390fd5b60008060003373ffffffffffffffffffffffffffffffffffffffff1673ffffffffffffffffffffffffffffffffffffffff16815260200190815260200160002060008673ffffffffffffffffffffffffffffffffffffffff1673ffffffffffffffffffffffffffffffffffffffff1681526020019081526020016000206000858152602001908152602001600020604051806040016040529081600082015481526020016001820160009054906101000a900460ff1615151515815250509050600115158160200151151514612691576040517f08c379a000000000000000000000000000000000000000000000000000000000815260040161268890613167565b60405180910390fd5b828160000151146126d7576040517f08c379a00000000000000000000000000000000000000000000000000000000081526004016126ce90613593565b60405180910390fd5b826000803373ffffffffffffffffffffffffffffffffffffffff1673ffffffffffffffffffffffffffffffffffffffff16815260200190815260200160002060008773ffffffffffffffffffffffffffffffffffffffff1673ffffffffffffffffffffffffffffffffffffffff1681526020019081526020016000206000868152602001908152602001600020600001819055508473ffffffffffffffffffffffffffffffffffffffff163373ffffffffffffffffffffffffffffffffffffffff167fdbf7c40bb28b7d0f424d836b8f3926f8c6042f96b34357b05790bbf4b52d356786866040516127ca929190612e72565b60405180910390a35050505050565b6000821161281c576040517f08c379a0000000000000000000000000000000000000000000000000000000008152600401612813906135ff565b60405180910390fd5b60405180604001604052808381526020018215158152506000803373ffffffffffffffffffffffffffffffffffffffff1673ffffffffffffffffffffffffffffffffffffffff16815260200190815260200160002060008673ffffffffffffffffffffffffffffffffffffffff1673ffffffffffffffffffffffffffffffffffffffff16815260200190815260200160002060008581526020019081526020016000206000820151816000015560208201518160010160006101000a81548160ff0219169083151502179055509050508373ffffffffffffffffffffffffffffffffffffffff163373ffffffffffffffffffffffffffffffffffffffff167f85485f7fa80515e3e3f4dd0b33a53c114678f4dbad2532605530c9ac6b5eaaee85858560405161294d9392919061362e565b60405180910390a350505050565b600080fd5b600073ffffffffffffffffffffffffffffffffffffffff82169050919050565b600061298b82612960565b9050919050565b61299b81612980565b81146129a657600080fd5b50565b6000813590506129b881612992565b92915050565b6000819050919050565b6129d1816129be565b81146129dc57600080fd5b50565b6000813590506129ee816129c8565b92915050565b60008060408385031215612a0b57612a0a61295b565b5b6000612a19858286016129a9565b9250506020612a2a858286016129df565b9150509250929050565b600080600060608486031215612a4d57612a4c61295b565b5b6000612a5b868287016129a9565b9350506020612a6c868287016129a9565b9250506040612a7d868287016129df565b9150509250925092565b600080600060608486031215612aa057612a9f61295b565b5b6000612aae868287016129a9565b9350506020612abf868287016129df565b9250506040612ad0868287016129df565b9150509250925092565b60008060008060808587031215612af457612af361295b565b5b6000612b02878288016129a9565b9450506020612b13878288016129df565b9350506040612b24878288016129df565b9250506060612b35878288016129df565b91505092959194509250565b612b4a816129be565b82525050565b6000602082019050612b656000830184612b41565b92915050565b600081519050612b7a81612992565b92915050565b600060208284031215612b9657612b9561295b565b5b6000612ba484828501612b6b565b91505092915050565b600082825260208201905092915050565b7f4e465420646f65736e277420657869747320696e2074686520436f6c6c65637460008201527f696f6e206f72206f6e20426c6f636b636861696e000000000000000000000000602082015250565b6000612c1a603483612bad565b9150612c2582612bbe565b604082019050919050565b60006020820190508181036000830152612c4981612c0d565b9050919050565b7f4974656d206973206e6f74206c6973746564206f6e204d61726b6574706c616360008201527f6500000000000000000000000000000000000000000000000000000000000000602082015250565b6000612cac602183612bad565b9150612cb782612c50565b604082019050919050565b60006020820190508181036000830152612cdb81612c9f565b9050919050565b7f4d61726b6574706c616365206973206e6f7420616c6c6f77656420746f20736560008201527f6c6c207468697320746f6b6b656e206669727374206372656174656c6973746960208201527f6e67206f6e206d61726b6574706c616365000000000000000000000000000000604082015250565b6000612d64605183612bad565b9150612d6f82612ce2565b606082019050919050565b60006020820190508181036000830152612d9381612d57565b9050919050565b7f416d6f756e742073656e64206973206c657373207468656e207468652050726960008201527f6365206f6620746865206974656d2e0000000000000000000000000000000000602082015250565b6000612df6602f83612bad565b9150612e0182612d9a565b604082019050919050565b60006020820190508181036000830152612e2581612de9565b9050919050565b612e3581612980565b82525050565b6000606082019050612e506000830186612e2c565b612e5d6020830185612e2c565b612e6a6040830184612b41565b949350505050565b6000604082019050612e876000830185612b41565b612e946020830184612b41565b9392505050565b7f55736572206973206e6f7420746865206f776e6572206f662074686520746f6b60008201527f6b656e0000000000000000000000000000000000000000000000000000000000602082015250565b6000612ef7602383612bad565b9150612f0282612e9b565b604082019050919050565b60006020820190508181036000830152612f2681612eea565b9050919050565b6000604082019050612f426000830185612e2c565b612f4f6020830184612e2c565b9392505050565b60008115159050919050565b612f6b81612f56565b8114612f7657600080fd5b50565b600081519050612f8881612f62565b92915050565b600060208284031215612fa457612fa361295b565b5b6000612fb284828501612f79565b91505092915050565b7f4d61726b6574706c616365206973206e6f7420617070726f76656420746f205460008201527f72616e73666572206974656d7300000000000000000000000000000000000000602082015250565b6000613017602d83612bad565b915061302282612fbb565b604082019050919050565b600060208201905081810360008301526130468161300a565b9050919050565b7f4e487b7100000000000000000000000000000000000000000000000000000000600052601160045260246000fd5b6000613087826129be565b9150613092836129be565b92508282026130a0816129be565b915082820484148315176130b7576130b661304d565b5b5092915050565b60006060820190506130d36000830186612b41565b6130e06020830185612b41565b6130ed6040830184612b41565b949350505050565b7f4d61726b6574706c616365206973206e6f7420617070726f76656420746f206c60008201527f697374206974656d730000000000000000000000000000000000000000000000602082015250565b6000613151602983612bad565b915061315c826130f5565b604082019050919050565b6000602082019050818103600083015261318081613144565b9050919050565b7f546865206974656d20646f6573206e6f74206578697400000000000000000000600082015250565b60006131bd601683612bad565b91506131c882613187565b602082019050919050565b600060208201905081810360008301526131ec816131b0565b9050919050565b7f54696d6520686173206e6f7420656e6465640000000000000000000000000000600082015250565b6000613229601283612bad565b9150613234826131f3565b602082019050919050565b600060208201905081810360008301526132588161321c565b9050919050565b7f416d6f756e742073656e64206d75737420626520657175616c20746f2074686560008201527f205072696365206f66204f666665720000000000000000000000000000000000602082015250565b60006132bb602f83612bad565b91506132c68261325f565b604082019050919050565b600060208201905081810360008301526132ea816132ae565b9050919050565b7f4475726174696f6e2063616e6e6f74206265206c657373207468616e2031204460008201527f6179210000000000000000000000000000000000000000000000000000000000602082015250565b600061334d602383612bad565b9150613358826132f1565b604082019050919050565b6000602082019050818103600083015261337c81613340565b9050919050565b7f4f776e65722063616e6e6f7420637265617465204f6666657200000000000000600082015250565b60006133b9601983612bad565b91506133c482613383565b602082019050919050565b600060208201905081810360008301526133e8816133ac565b9050919050565b7f4f6666657220616c7265616479206d61646520776974682073616d652070726960008201527f6365000000000000000000000000000000000000000000000000000000000000602082015250565b600061344b602283612bad565b9150613456826133ef565b604082019050919050565b6000602082019050818103600083015261347a8161343e565b9050919050565b600061348c826129be565b9150613497836129be565b92508282019050808211156134af576134ae61304d565b5b92915050565b7f4f6666657220616c7265616479206d616465206d7573742064656c657465207060008201527f7265696f7573204f666665720000000000000000000000000000000000000000602082015250565b6000613511602c83612bad565b915061351c826134b5565b604082019050919050565b6000602082019050818103600083015261354081613504565b9050919050565b7f4c697374696e672050726963652063616e6e6f742062652073616d6500000000600082015250565b600061357d601c83612bad565b915061358882613547565b602082019050919050565b600060208201905081810360008301526135ac81613570565b9050919050565b7f5072696365206d7573742062652067726561746572207468616e207a65726f00600082015250565b60006135e9601f83612bad565b91506135f4826135b3565b602082019050919050565b60006020820190508181036000830152613618816135dc565b9050919050565b61362881612f56565b82525050565b60006060820190506136436000830186612b41565b6136506020830185612b41565b61365d604083018461361f565b94935050505056fea264697066735822122048c03969c4af0bbe067a3abbdaebc270de323d26ae37dc718caf81d1c4143c6964736f6c63430008110033",
  "devdoc": {
    "kind": "dev",
    "methods": {},
    "version": 1
  },
  "userdoc": {
    "kind": "user",
    "methods": {},
    "version": 1
  },
  "storageLayout": {
    "storage": [
      {
        "astId": 149,
        "contract": "contracts/Marketplace.sol:ArtAlleyMarketplace",
        "label": "_s_marketplaceItem",
        "offset": 0,
        "slot": "0",
        "type": "t_mapping(t_address,t_mapping(t_address,t_mapping(t_uint256,t_struct(s_Marketpalceitem)135_storage)))"
      },
      {
        "astId": 158,
        "contract": "contracts/Marketplace.sol:ArtAlleyMarketplace",
        "label": "_s_marketplaceItemoffer",
        "offset": 0,
        "slot": "1",
        "type": "t_mapping(t_address,t_mapping(t_address,t_mapping(t_uint256,t_struct(s_Marketpalceoffer)140_storage)))"
      }
    ],
    "types": {
      "t_address": {
        "encoding": "inplace",
        "label": "address",
        "numberOfBytes": "20"
      },
      "t_bool": {
        "encoding": "inplace",
        "label": "bool",
        "numberOfBytes": "1"
      },
      "t_mapping(t_address,t_mapping(t_address,t_mapping(t_uint256,t_struct(s_Marketpalceitem)135_storage)))": {
        "encoding": "mapping",
        "key": "t_address",
        "label": "mapping(address => mapping(address => mapping(uint256 => struct ArtAlleyMarketplace.s_Marketpalceitem)))",
        "numberOfBytes": "32",
        "value": "t_mapping(t_address,t_mapping(t_uint256,t_struct(s_Marketpalceitem)135_storage))"
      },
      "t_mapping(t_address,t_mapping(t_address,t_mapping(t_uint256,t_struct(s_Marketpalceoffer)140_storage)))": {
        "encoding": "mapping",
        "key": "t_address",
        "label": "mapping(address => mapping(address => mapping(uint256 => struct ArtAlleyMarketplace.s_Marketpalceoffer)))",
        "numberOfBytes": "32",
        "value": "t_mapping(t_address,t_mapping(t_uint256,t_struct(s_Marketpalceoffer)140_storage))"
      },
      "t_mapping(t_address,t_mapping(t_uint256,t_struct(s_Marketpalceitem)135_storage))": {
        "encoding": "mapping",
        "key": "t_address",
        "label": "mapping(address => mapping(uint256 => struct ArtAlleyMarketplace.s_Marketpalceitem))",
        "numberOfBytes": "32",
        "value": "t_mapping(t_uint256,t_struct(s_Marketpalceitem)135_storage)"
      },
      "t_mapping(t_address,t_mapping(t_uint256,t_struct(s_Marketpalceoffer)140_storage))": {
        "encoding": "mapping",
        "key": "t_address",
        "label": "mapping(address => mapping(uint256 => struct ArtAlleyMarketplace.s_Marketpalceoffer))",
        "numberOfBytes": "32",
        "value": "t_mapping(t_uint256,t_struct(s_Marketpalceoffer)140_storage)"
      },
      "t_mapping(t_uint256,t_struct(s_Marketpalceitem)135_storage)": {
        "encoding": "mapping",
        "key": "t_uint256",
        "label": "mapping(uint256 => struct ArtAlleyMarketplace.s_Marketpalceitem)",
        "numberOfBytes": "32",
        "value": "t_struct(s_Marketpalceitem)135_storage"
      },
      "t_mapping(t_uint256,t_struct(s_Marketpalceoffer)140_storage)": {
        "encoding": "mapping",
        "key": "t_uint256",
        "label": "mapping(uint256 => struct ArtAlleyMarketplace.s_Marketpalceoffer)",
        "numberOfBytes": "32",
        "value": "t_struct(s_Marketpalceoffer)140_storage"
      },
      "t_struct(s_Marketpalceitem)135_storage": {
        "encoding": "inplace",
        "label": "struct ArtAlleyMarketplace.s_Marketpalceitem",
        "members": [
          {
            "astId": 132,
            "contract": "contracts/Marketplace.sol:ArtAlleyMarketplace",
            "label": "Price",
            "offset": 0,
            "slot": "0",
            "type": "t_uint256"
          },
          {
            "astId": 134,
            "contract": "contracts/Marketplace.sol:ArtAlleyMarketplace",
            "label": "approval",
            "offset": 0,
            "slot": "1",
            "type": "t_bool"
          }
        ],
        "numberOfBytes": "64"
      },
      "t_struct(s_Marketpalceoffer)140_storage": {
        "encoding": "inplace",
        "label": "struct ArtAlleyMarketplace.s_Marketpalceoffer",
        "members": [
          {
            "astId": 137,
            "contract": "contracts/Marketplace.sol:ArtAlleyMarketplace",
            "label": "Price",
            "offset": 0,
            "slot": "0",
            "type": "t_uint256"
          },
          {
            "astId": 139,
            "contract": "contracts/Marketplace.sol:ArtAlleyMarketplace",
            "label": "Endtime",
            "offset": 0,
            "slot": "1",
            "type": "t_uint256"
          }
        ],
        "numberOfBytes": "64"
      },
      "t_uint256": {
        "encoding": "inplace",
        "label": "uint256",
        "numberOfBytes": "32"
      }
    }
  }
}