{
  "address": "0x59d6E85938e6F6E38A327EF30E348B0a99212969",
  "abi": [
    {
      "anonymous": false,
      "inputs": [
        {
          "indexed": true,
          "internalType": "address",
          "name": "owner",
          "type": "address"
        },
        {
          "indexed": true,
          "internalType": "address",
          "name": "contractAddress",
          "type": "address"
        },
        {
          "indexed": false,
          "internalType": "string",
          "name": "metadataUrl",
          "type": "string"
        }
      ],
      "name": "CollectionCreated",
      "type": "event"
    },
    {
      "inputs": [
        {
          "internalType": "string",
          "name": "name",
          "type": "string"
        },
        {
          "internalType": "string",
          "name": "symbol",
          "type": "string"
        },
        {
          "internalType": "string",
          "name": "metadataUrl",
          "type": "string"
        }
      ],
      "name": "createCollection",
      "outputs": [],
      "stateMutability": "nonpayable",
      "type": "function"
    }
  ],
  "transactionHash": "0x3f98a278ad29584acbf6b1e0f1b7166ef80bccda081da023b58ccc6dea764f4d",
  "args": [],
  "numDeployments": 2,
  "solcInputHash": "360ce2fd2867996ede1c31b6deaf7fef",
  "bytecode": "0x608060405234801561001057600080fd5b50613ca2806100206000396000f3fe60806040523480156200001157600080fd5b50600436106200002e5760003560e01c8063ece86c211462000033575b600080fd5b6200005160048036038101906200004b919062000287565b62000053565b005b600083833384604051620000679062000103565b6200007694939291906200040e565b604051809103906000f08015801562000093573d6000803e3d6000fd5b5090508073ffffffffffffffffffffffffffffffffffffffff163373ffffffffffffffffffffffffffffffffffffffff167fa9a63cb75fdf6f638d49c249df7d5b94dd8bb8ac664ca12da7339862b9dd87ae84604051620000f5919062000470565b60405180910390a350505050565b6137d8806200049583390190565b6000604051905090565b600080fd5b600080fd5b600080fd5b600080fd5b6000601f19601f8301169050919050565b7f4e487b7100000000000000000000000000000000000000000000000000000000600052604160045260246000fd5b6200017a826200012f565b810181811067ffffffffffffffff821117156200019c576200019b62000140565b5b80604052505050565b6000620001b162000111565b9050620001bf82826200016f565b919050565b600067ffffffffffffffff821115620001e257620001e162000140565b5b620001ed826200012f565b9050602081019050919050565b82818337600083830152505050565b6000620002206200021a84620001c4565b620001a5565b9050828152602081018484840111156200023f576200023e6200012a565b5b6200024c848285620001fa565b509392505050565b600082601f8301126200026c576200026b62000125565b5b81356200027e84826020860162000209565b91505092915050565b600080600060608486031215620002a357620002a26200011b565b5b600084013567ffffffffffffffff811115620002c457620002c362000120565b5b620002d28682870162000254565b935050602084013567ffffffffffffffff811115620002f657620002f562000120565b5b620003048682870162000254565b925050604084013567ffffffffffffffff81111562000328576200032762000120565b5b620003368682870162000254565b9150509250925092565b600081519050919050565b600082825260208201905092915050565b60005b838110156200037c5780820151818401526020810190506200035f565b60008484015250505050565b6000620003958262000340565b620003a181856200034b565b9350620003b38185602086016200035c565b620003be816200012f565b840191505092915050565b600073ffffffffffffffffffffffffffffffffffffffff82169050919050565b6000620003f682620003c9565b9050919050565b6200040881620003e9565b82525050565b600060808201905081810360008301526200042a818762000388565b9050818103602083015262000440818662000388565b9050620004516040830185620003fd565b818103606083015262000465818462000388565b905095945050505050565b600060208201905081810360008301526200048c818462000388565b90509291505056fe60806040523480156200001157600080fd5b50604051620037d8380380620037d8833981810160405281019062000037919062000372565b838381600090816200004a91906200068c565b5080600190816200005c91906200068c565b5050506200007f62000073620000ac60201b60201c565b620000b460201b60201c565b6200009082620000b460201b60201c565b8060099081620000a191906200068c565b505050505062000773565b600033905090565b6000600760009054906101000a900473ffffffffffffffffffffffffffffffffffffffff16905081600760006101000a81548173ffffffffffffffffffffffffffffffffffffffff021916908373ffffffffffffffffffffffffffffffffffffffff1602179055508173ffffffffffffffffffffffffffffffffffffffff168173ffffffffffffffffffffffffffffffffffffffff167f8be0079c531659141344cd1fd0a4f28419497f9722a3daafe3b4186f6b6457e060405160405180910390a35050565b6000604051905090565b600080fd5b600080fd5b600080fd5b600080fd5b6000601f19601f8301169050919050565b7f4e487b7100000000000000000000000000000000000000000000000000000000600052604160045260246000fd5b620001e38262000198565b810181811067ffffffffffffffff82111715620002055762000204620001a9565b5b80604052505050565b60006200021a6200017a565b9050620002288282620001d8565b919050565b600067ffffffffffffffff8211156200024b576200024a620001a9565b5b620002568262000198565b9050602081019050919050565b60005b838110156200028357808201518184015260208101905062000266565b60008484015250505050565b6000620002a6620002a0846200022d565b6200020e565b905082815260208101848484011115620002c557620002c462000193565b5b620002d284828562000263565b509392505050565b600082601f830112620002f257620002f16200018e565b5b8151620003048482602086016200028f565b91505092915050565b600073ffffffffffffffffffffffffffffffffffffffff82169050919050565b60006200033a826200030d565b9050919050565b6200034c816200032d565b81146200035857600080fd5b50565b6000815190506200036c8162000341565b92915050565b600080600080608085870312156200038f576200038e62000184565b5b600085015167ffffffffffffffff811115620003b057620003af62000189565b5b620003be87828801620002da565b945050602085015167ffffffffffffffff811115620003e257620003e162000189565b5b620003f087828801620002da565b935050604062000403878288016200035b565b925050606085015167ffffffffffffffff81111562000427576200042662000189565b5b6200043587828801620002da565b91505092959194509250565b600081519050919050565b7f4e487b7100000000000000000000000000000000000000000000000000000000600052602260045260246000fd5b600060028204905060018216806200049457607f821691505b602082108103620004aa57620004a96200044c565b5b50919050565b60008190508160005260206000209050919050565b60006020601f8301049050919050565b600082821b905092915050565b600060088302620005147fffffffffffffffffffffffffffffffffffffffffffffffffffffffffffffffff82620004d5565b620005208683620004d5565b95508019841693508086168417925050509392505050565b6000819050919050565b6000819050919050565b60006200056d62000567620005618462000538565b62000542565b62000538565b9050919050565b6000819050919050565b62000589836200054c565b620005a1620005988262000574565b848454620004e2565b825550505050565b600090565b620005b8620005a9565b620005c58184846200057e565b505050565b5b81811015620005ed57620005e1600082620005ae565b600181019050620005cb565b5050565b601f8211156200063c576200060681620004b0565b6200061184620004c5565b8101602085101562000621578190505b620006396200063085620004c5565b830182620005ca565b50505b505050565b600082821c905092915050565b6000620006616000198460080262000641565b1980831691505092915050565b60006200067c83836200064e565b9150826002028217905092915050565b620006978262000441565b67ffffffffffffffff811115620006b357620006b2620001a9565b5b620006bf82546200047b565b620006cc828285620005f1565b600060209050601f831160018114620007045760008415620006ef578287015190505b620006fb85826200066e565b8655506200076b565b601f1984166200071486620004b0565b60005b828110156200073e5784890151825560018201915060208501945060208101905062000717565b868310156200075e57848901516200075a601f8916826200064e565b8355505b6001600288020188555050505b505050505050565b61305580620007836000396000f3fe608060405234801561001057600080fd5b50600436106101165760003560e01c80638da5cb5b116100a2578063c87b56dd11610071578063c87b56dd146102cb578063d0def521146102fb578063e8a3d4851461032b578063e985e9c514610349578063f2fde38b1461037957610116565b80638da5cb5b1461025757806395d89b4114610275578063a22cb46514610293578063b88d4fde146102af57610116565b806323b872dd116100e957806323b872dd146101b557806342842e0e146101d15780636352211e146101ed57806370a082311461021d578063715018a61461024d57610116565b806301ffc9a71461011b57806306fdde031461014b578063081812fc14610169578063095ea7b314610199575b600080fd5b61013560048036038101906101309190611d67565b610395565b6040516101429190611daf565b60405180910390f35b610153610477565b6040516101609190611e5a565b60405180910390f35b610183600480360381019061017e9190611eb2565b610509565b6040516101909190611f20565b60405180910390f35b6101b360048036038101906101ae9190611f67565b61054f565b005b6101cf60048036038101906101ca9190611fa7565b610666565b005b6101eb60048036038101906101e69190611fa7565b6106c6565b005b61020760048036038101906102029190611eb2565b6106e6565b6040516102149190611f20565b60405180910390f35b61023760048036038101906102329190611ffa565b61076c565b6040516102449190612036565b60405180910390f35b610255610823565b005b61025f610837565b60405161026c9190611f20565b60405180910390f35b61027d610861565b60405161028a9190611e5a565b60405180910390f35b6102ad60048036038101906102a8919061207d565b6108f3565b005b6102c960048036038101906102c491906121f2565b610909565b005b6102e560048036038101906102e09190611eb2565b61096b565b6040516102f29190611e5a565b60405180910390f35b61031560048036038101906103109190612316565b610a7d565b6040516103229190612036565b60405180910390f35b610333610ac4565b6040516103409190611e5a565b60405180910390f35b610363600480360381019061035e9190612372565b610b56565b6040516103709190611daf565b60405180910390f35b610393600480360381019061038e9190611ffa565b610bea565b005b60007f80ac58cd000000000000000000000000000000000000000000000000000000007bffffffffffffffffffffffffffffffffffffffffffffffffffffffff1916827bffffffffffffffffffffffffffffffffffffffffffffffffffffffff1916148061046057507f5b5e139f000000000000000000000000000000000000000000000000000000007bffffffffffffffffffffffffffffffffffffffffffffffffffffffff1916827bffffffffffffffffffffffffffffffffffffffffffffffffffffffff1916145b80610470575061046f82610c6d565b5b9050919050565b606060008054610486906123e1565b80601f01602080910402602001604051908101604052809291908181526020018280546104b2906123e1565b80156104ff5780601f106104d4576101008083540402835291602001916104ff565b820191906000526020600020905b8154815290600101906020018083116104e257829003601f168201915b5050505050905090565b600061051482610cd7565b6004600083815260200190815260200160002060009054906101000a900473ffffffffffffffffffffffffffffffffffffffff169050919050565b600061055a826106e6565b90508073ffffffffffffffffffffffffffffffffffffffff168373ffffffffffffffffffffffffffffffffffffffff16036105ca576040517f08c379a00000000000000000000000000000000000000000000000000000000081526004016105c190612484565b60405180910390fd5b8073ffffffffffffffffffffffffffffffffffffffff166105e9610d22565b73ffffffffffffffffffffffffffffffffffffffff161480610618575061061781610612610d22565b610b56565b5b610657576040517f08c379a000000000000000000000000000000000000000000000000000000000815260040161064e90612516565b60405180910390fd5b6106618383610d2a565b505050565b610677610671610d22565b82610de3565b6106b6576040517f08c379a00000000000000000000000000000000000000000000000000000000081526004016106ad906125a8565b60405180910390fd5b6106c1838383610e78565b505050565b6106e183838360405180602001604052806000815250610909565b505050565b6000806106f283611171565b9050600073ffffffffffffffffffffffffffffffffffffffff168173ffffffffffffffffffffffffffffffffffffffff1603610763576040517f08c379a000000000000000000000000000000000000000000000000000000000815260040161075a90612614565b60405180910390fd5b80915050919050565b60008073ffffffffffffffffffffffffffffffffffffffff168273ffffffffffffffffffffffffffffffffffffffff16036107dc576040517f08c379a00000000000000000000000000000000000000000000000000000000081526004016107d3906126a6565b60405180910390fd5b600360008373ffffffffffffffffffffffffffffffffffffffff1673ffffffffffffffffffffffffffffffffffffffff168152602001908152602001600020549050919050565b61082b6111ae565b610835600061122c565b565b6000600760009054906101000a900473ffffffffffffffffffffffffffffffffffffffff16905090565b606060018054610870906123e1565b80601f016020809104026020016040519081016040528092919081815260200182805461089c906123e1565b80156108e95780601f106108be576101008083540402835291602001916108e9565b820191906000526020600020905b8154815290600101906020018083116108cc57829003601f168201915b5050505050905090565b6109056108fe610d22565b83836112f2565b5050565b61091a610914610d22565b83610de3565b610959576040517f08c379a0000000000000000000000000000000000000000000000000000000008152600401610950906125a8565b60405180910390fd5b6109658484848461145e565b50505050565b606061097682610cd7565b6000600660008481526020019081526020016000208054610996906123e1565b80601f01602080910402602001604051908101604052809291908181526020018280546109c2906123e1565b8015610a0f5780601f106109e457610100808354040283529160200191610a0f565b820191906000526020600020905b8154815290600101906020018083116109f257829003601f168201915b505050505090506000610a206114ba565b90506000815103610a35578192505050610a78565b600082511115610a6a578082604051602001610a52929190612702565b60405160208183030381529060405292505050610a78565b610a73846114d1565b925050505b919050565b6000610a876111ae565b60006008549050610a988482611539565b610aa28184611756565b60086000815480929190610ab590612755565b91905055508091505092915050565b606060098054610ad3906123e1565b80601f0160208091040260200160405190810160405280929190818152602001828054610aff906123e1565b8015610b4c5780601f10610b2157610100808354040283529160200191610b4c565b820191906000526020600020905b815481529060010190602001808311610b2f57829003601f168201915b5050505050905090565b6000600560008473ffffffffffffffffffffffffffffffffffffffff1673ffffffffffffffffffffffffffffffffffffffff16815260200190815260200160002060008373ffffffffffffffffffffffffffffffffffffffff1673ffffffffffffffffffffffffffffffffffffffff16815260200190815260200160002060009054906101000a900460ff16905092915050565b610bf26111ae565b600073ffffffffffffffffffffffffffffffffffffffff168173ffffffffffffffffffffffffffffffffffffffff1603610c61576040517f08c379a0000000000000000000000000000000000000000000000000000000008152600401610c589061280f565b60405180910390fd5b610c6a8161122c565b50565b60007f01ffc9a7000000000000000000000000000000000000000000000000000000007bffffffffffffffffffffffffffffffffffffffffffffffffffffffff1916827bffffffffffffffffffffffffffffffffffffffffffffffffffffffff1916149050919050565b610ce0816117c3565b610d1f576040517f08c379a0000000000000000000000000000000000000000000000000000000008152600401610d1690612614565b60405180910390fd5b50565b600033905090565b816004600083815260200190815260200160002060006101000a81548173ffffffffffffffffffffffffffffffffffffffff021916908373ffffffffffffffffffffffffffffffffffffffff160217905550808273ffffffffffffffffffffffffffffffffffffffff16610d9d836106e6565b73ffffffffffffffffffffffffffffffffffffffff167f8c5be1e5ebec7d5bd14f71427d1e84f3dd0314c0f7b2291e5b200ac8c7c3b92560405160405180910390a45050565b600080610def836106e6565b90508073ffffffffffffffffffffffffffffffffffffffff168473ffffffffffffffffffffffffffffffffffffffff161480610e315750610e308185610b56565b5b80610e6f57508373ffffffffffffffffffffffffffffffffffffffff16610e5784610509565b73ffffffffffffffffffffffffffffffffffffffff16145b91505092915050565b8273ffffffffffffffffffffffffffffffffffffffff16610e98826106e6565b73ffffffffffffffffffffffffffffffffffffffff1614610eee576040517f08c379a0000000000000000000000000000000000000000000000000000000008152600401610ee5906128a1565b60405180910390fd5b600073ffffffffffffffffffffffffffffffffffffffff168273ffffffffffffffffffffffffffffffffffffffff1603610f5d576040517f08c379a0000000000000000000000000000000000000000000000000000000008152600401610f5490612933565b60405180910390fd5b610f6a8383836001611804565b8273ffffffffffffffffffffffffffffffffffffffff16610f8a826106e6565b73ffffffffffffffffffffffffffffffffffffffff1614610fe0576040517f08c379a0000000000000000000000000000000000000000000000000000000008152600401610fd7906128a1565b60405180910390fd5b6004600082815260200190815260200160002060006101000a81549073ffffffffffffffffffffffffffffffffffffffff02191690556001600360008573ffffffffffffffffffffffffffffffffffffffff1673ffffffffffffffffffffffffffffffffffffffff168152602001908152602001600020600082825403925050819055506001600360008473ffffffffffffffffffffffffffffffffffffffff1673ffffffffffffffffffffffffffffffffffffffff16815260200190815260200160002060008282540192505081905550816002600083815260200190815260200160002060006101000a81548173ffffffffffffffffffffffffffffffffffffffff021916908373ffffffffffffffffffffffffffffffffffffffff160217905550808273ffffffffffffffffffffffffffffffffffffffff168473ffffffffffffffffffffffffffffffffffffffff167fddf252ad1be2c89b69c2b068fc378daa952ba7f163c4a11628f55a4df523b3ef60405160405180910390a461116c838383600161192a565b505050565b60006002600083815260200190815260200160002060009054906101000a900473ffffffffffffffffffffffffffffffffffffffff169050919050565b6111b6610d22565b73ffffffffffffffffffffffffffffffffffffffff166111d4610837565b73ffffffffffffffffffffffffffffffffffffffff161461122a576040517f08c379a00000000000000000000000000000000000000000000000000000000081526004016112219061299f565b60405180910390fd5b565b6000600760009054906101000a900473ffffffffffffffffffffffffffffffffffffffff16905081600760006101000a81548173ffffffffffffffffffffffffffffffffffffffff021916908373ffffffffffffffffffffffffffffffffffffffff1602179055508173ffffffffffffffffffffffffffffffffffffffff168173ffffffffffffffffffffffffffffffffffffffff167f8be0079c531659141344cd1fd0a4f28419497f9722a3daafe3b4186f6b6457e060405160405180910390a35050565b8173ffffffffffffffffffffffffffffffffffffffff168373ffffffffffffffffffffffffffffffffffffffff1603611360576040517f08c379a000000000000000000000000000000000000000000000000000000000815260040161135790612a0b565b60405180910390fd5b80600560008573ffffffffffffffffffffffffffffffffffffffff1673ffffffffffffffffffffffffffffffffffffffff16815260200190815260200160002060008473ffffffffffffffffffffffffffffffffffffffff1673ffffffffffffffffffffffffffffffffffffffff16815260200190815260200160002060006101000a81548160ff0219169083151502179055508173ffffffffffffffffffffffffffffffffffffffff168373ffffffffffffffffffffffffffffffffffffffff167f17307eab39ab6107e8899845ad3d59bd9653f200f220920489ca2b5937696c31836040516114519190611daf565b60405180910390a3505050565b611469848484610e78565b61147584848484611930565b6114b4576040517f08c379a00000000000000000000000000000000000000000000000000000000081526004016114ab90612a9d565b60405180910390fd5b50505050565b606060405180602001604052806000815250905090565b60606114dc82610cd7565b60006114e66114ba565b905060008151116115065760405180602001604052806000815250611531565b8061151084611ab7565b604051602001611521929190612702565b6040516020818303038152906040525b915050919050565b600073ffffffffffffffffffffffffffffffffffffffff168273ffffffffffffffffffffffffffffffffffffffff16036115a8576040517f08c379a000000000000000000000000000000000000000000000000000000000815260040161159f90612b09565b60405180910390fd5b6115b1816117c3565b156115f1576040517f08c379a00000000000000000000000000000000000000000000000000000000081526004016115e890612b75565b60405180910390fd5b6115ff600083836001611804565b611608816117c3565b15611648576040517f08c379a000000000000000000000000000000000000000000000000000000000815260040161163f90612b75565b60405180910390fd5b6001600360008473ffffffffffffffffffffffffffffffffffffffff1673ffffffffffffffffffffffffffffffffffffffff16815260200190815260200160002060008282540192505081905550816002600083815260200190815260200160002060006101000a81548173ffffffffffffffffffffffffffffffffffffffff021916908373ffffffffffffffffffffffffffffffffffffffff160217905550808273ffffffffffffffffffffffffffffffffffffffff16600073ffffffffffffffffffffffffffffffffffffffff167fddf252ad1be2c89b69c2b068fc378daa952ba7f163c4a11628f55a4df523b3ef60405160405180910390a461175260008383600161192a565b5050565b61175f826117c3565b61179e576040517f08c379a000000000000000000000000000000000000000000000000000000000815260040161179590612c07565b60405180910390fd5b806006600084815260200190815260200160002090816117be9190612dd3565b505050565b60008073ffffffffffffffffffffffffffffffffffffffff166117e583611171565b73ffffffffffffffffffffffffffffffffffffffff1614159050919050565b600181111561192457600073ffffffffffffffffffffffffffffffffffffffff168473ffffffffffffffffffffffffffffffffffffffff16146118985780600360008673ffffffffffffffffffffffffffffffffffffffff1673ffffffffffffffffffffffffffffffffffffffff16815260200190815260200160002060008282546118909190612ea5565b925050819055505b600073ffffffffffffffffffffffffffffffffffffffff168373ffffffffffffffffffffffffffffffffffffffff16146119235780600360008573ffffffffffffffffffffffffffffffffffffffff1673ffffffffffffffffffffffffffffffffffffffff168152602001908152602001600020600082825461191b9190612ed9565b925050819055505b5b50505050565b50505050565b60006119518473ffffffffffffffffffffffffffffffffffffffff16611b85565b15611aaa578373ffffffffffffffffffffffffffffffffffffffff1663150b7a0261197a610d22565b8786866040518563ffffffff1660e01b815260040161199c9493929190612f62565b6020604051808303816000875af19250505080156119d857506040513d601f19601f820116820180604052508101906119d59190612fc3565b60015b611a5a573d8060008114611a08576040519150601f19603f3d011682016040523d82523d6000602084013e611a0d565b606091505b506000815103611a52576040517f08c379a0000000000000000000000000000000000000000000000000000000008152600401611a4990612a9d565b60405180910390fd5b805181602001fd5b63150b7a0260e01b7bffffffffffffffffffffffffffffffffffffffffffffffffffffffff1916817bffffffffffffffffffffffffffffffffffffffffffffffffffffffff191614915050611aaf565b600190505b949350505050565b606060006001611ac684611ba8565b01905060008167ffffffffffffffff811115611ae557611ae46120c7565b5b6040519080825280601f01601f191660200182016040528015611b175781602001600182028036833780820191505090505b509050600082602001820190505b600115611b7a578080600190039150507f3031323334353637383961626364656600000000000000000000000000000000600a86061a8153600a8581611b6e57611b6d612ff0565b5b04945060008503611b25575b819350505050919050565b6000808273ffffffffffffffffffffffffffffffffffffffff163b119050919050565b600080600090507a184f03e93ff9f4daa797ed6e38ed64bf6a1f0100000000000000008310611c06577a184f03e93ff9f4daa797ed6e38ed64bf6a1f0100000000000000008381611bfc57611bfb612ff0565b5b0492506040810190505b6d04ee2d6d415b85acef81000000008310611c43576d04ee2d6d415b85acef81000000008381611c3957611c38612ff0565b5b0492506020810190505b662386f26fc100008310611c7257662386f26fc100008381611c6857611c67612ff0565b5b0492506010810190505b6305f5e1008310611c9b576305f5e1008381611c9157611c90612ff0565b5b0492506008810190505b6127108310611cc0576127108381611cb657611cb5612ff0565b5b0492506004810190505b60648310611ce35760648381611cd957611cd8612ff0565b5b0492506002810190505b600a8310611cf2576001810190505b80915050919050565b6000604051905090565b600080fd5b600080fd5b60007fffffffff0000000000000000000000000000000000000000000000000000000082169050919050565b611d4481611d0f565b8114611d4f57600080fd5b50565b600081359050611d6181611d3b565b92915050565b600060208284031215611d7d57611d7c611d05565b5b6000611d8b84828501611d52565b91505092915050565b60008115159050919050565b611da981611d94565b82525050565b6000602082019050611dc46000830184611da0565b92915050565b600081519050919050565b600082825260208201905092915050565b60005b83811015611e04578082015181840152602081019050611de9565b60008484015250505050565b6000601f19601f8301169050919050565b6000611e2c82611dca565b611e368185611dd5565b9350611e46818560208601611de6565b611e4f81611e10565b840191505092915050565b60006020820190508181036000830152611e748184611e21565b905092915050565b6000819050919050565b611e8f81611e7c565b8114611e9a57600080fd5b50565b600081359050611eac81611e86565b92915050565b600060208284031215611ec857611ec7611d05565b5b6000611ed684828501611e9d565b91505092915050565b600073ffffffffffffffffffffffffffffffffffffffff82169050919050565b6000611f0a82611edf565b9050919050565b611f1a81611eff565b82525050565b6000602082019050611f356000830184611f11565b92915050565b611f4481611eff565b8114611f4f57600080fd5b50565b600081359050611f6181611f3b565b92915050565b60008060408385031215611f7e57611f7d611d05565b5b6000611f8c85828601611f52565b9250506020611f9d85828601611e9d565b9150509250929050565b600080600060608486031215611fc057611fbf611d05565b5b6000611fce86828701611f52565b9350506020611fdf86828701611f52565b9250506040611ff086828701611e9d565b9150509250925092565b6000602082840312156120105761200f611d05565b5b600061201e84828501611f52565b91505092915050565b61203081611e7c565b82525050565b600060208201905061204b6000830184612027565b92915050565b61205a81611d94565b811461206557600080fd5b50565b60008135905061207781612051565b92915050565b6000806040838503121561209457612093611d05565b5b60006120a285828601611f52565b92505060206120b385828601612068565b9150509250929050565b600080fd5b600080fd5b7f4e487b7100000000000000000000000000000000000000000000000000000000600052604160045260246000fd5b6120ff82611e10565b810181811067ffffffffffffffff8211171561211e5761211d6120c7565b5b80604052505050565b6000612131611cfb565b905061213d82826120f6565b919050565b600067ffffffffffffffff82111561215d5761215c6120c7565b5b61216682611e10565b9050602081019050919050565b82818337600083830152505050565b600061219561219084612142565b612127565b9050828152602081018484840111156121b1576121b06120c2565b5b6121bc848285612173565b509392505050565b600082601f8301126121d9576121d86120bd565b5b81356121e9848260208601612182565b91505092915050565b6000806000806080858703121561220c5761220b611d05565b5b600061221a87828801611f52565b945050602061222b87828801611f52565b935050604061223c87828801611e9d565b925050606085013567ffffffffffffffff81111561225d5761225c611d0a565b5b612269878288016121c4565b91505092959194509250565b600067ffffffffffffffff8211156122905761228f6120c7565b5b61229982611e10565b9050602081019050919050565b60006122b96122b484612275565b612127565b9050828152602081018484840111156122d5576122d46120c2565b5b6122e0848285612173565b509392505050565b600082601f8301126122fd576122fc6120bd565b5b813561230d8482602086016122a6565b91505092915050565b6000806040838503121561232d5761232c611d05565b5b600061233b85828601611f52565b925050602083013567ffffffffffffffff81111561235c5761235b611d0a565b5b612368858286016122e8565b9150509250929050565b6000806040838503121561238957612388611d05565b5b600061239785828601611f52565b92505060206123a885828601611f52565b9150509250929050565b7f4e487b7100000000000000000000000000000000000000000000000000000000600052602260045260246000fd5b600060028204905060018216806123f957607f821691505b60208210810361240c5761240b6123b2565b5b50919050565b7f4552433732313a20617070726f76616c20746f2063757272656e74206f776e6560008201527f7200000000000000000000000000000000000000000000000000000000000000602082015250565b600061246e602183611dd5565b915061247982612412565b604082019050919050565b6000602082019050818103600083015261249d81612461565b9050919050565b7f4552433732313a20617070726f76652063616c6c6572206973206e6f7420746f60008201527f6b656e206f776e6572206f7220617070726f76656420666f7220616c6c000000602082015250565b6000612500603d83611dd5565b915061250b826124a4565b604082019050919050565b6000602082019050818103600083015261252f816124f3565b9050919050565b7f4552433732313a2063616c6c6572206973206e6f7420746f6b656e206f776e6560008201527f72206f7220617070726f76656400000000000000000000000000000000000000602082015250565b6000612592602d83611dd5565b915061259d82612536565b604082019050919050565b600060208201905081810360008301526125c181612585565b9050919050565b7f4552433732313a20696e76616c696420746f6b656e2049440000000000000000600082015250565b60006125fe601883611dd5565b9150612609826125c8565b602082019050919050565b6000602082019050818103600083015261262d816125f1565b9050919050565b7f4552433732313a2061646472657373207a65726f206973206e6f74206120766160008201527f6c6964206f776e65720000000000000000000000000000000000000000000000602082015250565b6000612690602983611dd5565b915061269b82612634565b604082019050919050565b600060208201905081810360008301526126bf81612683565b9050919050565b600081905092915050565b60006126dc82611dca565b6126e681856126c6565b93506126f6818560208601611de6565b80840191505092915050565b600061270e82856126d1565b915061271a82846126d1565b91508190509392505050565b7f4e487b7100000000000000000000000000000000000000000000000000000000600052601160045260246000fd5b600061276082611e7c565b91507fffffffffffffffffffffffffffffffffffffffffffffffffffffffffffffffff820361279257612791612726565b5b600182019050919050565b7f4f776e61626c653a206e6577206f776e657220697320746865207a65726f206160008201527f6464726573730000000000000000000000000000000000000000000000000000602082015250565b60006127f9602683611dd5565b91506128048261279d565b604082019050919050565b60006020820190508181036000830152612828816127ec565b9050919050565b7f4552433732313a207472616e736665722066726f6d20696e636f72726563742060008201527f6f776e6572000000000000000000000000000000000000000000000000000000602082015250565b600061288b602583611dd5565b91506128968261282f565b604082019050919050565b600060208201905081810360008301526128ba8161287e565b9050919050565b7f4552433732313a207472616e7366657220746f20746865207a65726f2061646460008201527f7265737300000000000000000000000000000000000000000000000000000000602082015250565b600061291d602483611dd5565b9150612928826128c1565b604082019050919050565b6000602082019050818103600083015261294c81612910565b9050919050565b7f4f776e61626c653a2063616c6c6572206973206e6f7420746865206f776e6572600082015250565b6000612989602083611dd5565b915061299482612953565b602082019050919050565b600060208201905081810360008301526129b88161297c565b9050919050565b7f4552433732313a20617070726f766520746f2063616c6c657200000000000000600082015250565b60006129f5601983611dd5565b9150612a00826129bf565b602082019050919050565b60006020820190508181036000830152612a24816129e8565b9050919050565b7f4552433732313a207472616e7366657220746f206e6f6e20455243373231526560008201527f63656976657220696d706c656d656e7465720000000000000000000000000000602082015250565b6000612a87603283611dd5565b9150612a9282612a2b565b604082019050919050565b60006020820190508181036000830152612ab681612a7a565b9050919050565b7f4552433732313a206d696e7420746f20746865207a65726f2061646472657373600082015250565b6000612af3602083611dd5565b9150612afe82612abd565b602082019050919050565b60006020820190508181036000830152612b2281612ae6565b9050919050565b7f4552433732313a20746f6b656e20616c7265616479206d696e74656400000000600082015250565b6000612b5f601c83611dd5565b9150612b6a82612b29565b602082019050919050565b60006020820190508181036000830152612b8e81612b52565b9050919050565b7f45524337323155524953746f726167653a2055524920736574206f66206e6f6e60008201527f6578697374656e7420746f6b656e000000000000000000000000000000000000602082015250565b6000612bf1602e83611dd5565b9150612bfc82612b95565b604082019050919050565b60006020820190508181036000830152612c2081612be4565b9050919050565b60008190508160005260206000209050919050565b60006020601f8301049050919050565b600082821b905092915050565b600060088302612c897fffffffffffffffffffffffffffffffffffffffffffffffffffffffffffffffff82612c4c565b612c938683612c4c565b95508019841693508086168417925050509392505050565b6000819050919050565b6000612cd0612ccb612cc684611e7c565b612cab565b611e7c565b9050919050565b6000819050919050565b612cea83612cb5565b612cfe612cf682612cd7565b848454612c59565b825550505050565b600090565b612d13612d06565b612d1e818484612ce1565b505050565b5b81811015612d4257612d37600082612d0b565b600181019050612d24565b5050565b601f821115612d8757612d5881612c27565b612d6184612c3c565b81016020851015612d70578190505b612d84612d7c85612c3c565b830182612d23565b50505b505050565b600082821c905092915050565b6000612daa60001984600802612d8c565b1980831691505092915050565b6000612dc38383612d99565b9150826002028217905092915050565b612ddc82611dca565b67ffffffffffffffff811115612df557612df46120c7565b5b612dff82546123e1565b612e0a828285612d46565b600060209050601f831160018114612e3d5760008415612e2b578287015190505b612e358582612db7565b865550612e9d565b601f198416612e4b86612c27565b60005b82811015612e7357848901518255600182019150602085019450602081019050612e4e565b86831015612e905784890151612e8c601f891682612d99565b8355505b6001600288020188555050505b505050505050565b6000612eb082611e7c565b9150612ebb83611e7c565b9250828203905081811115612ed357612ed2612726565b5b92915050565b6000612ee482611e7c565b9150612eef83611e7c565b9250828201905080821115612f0757612f06612726565b5b92915050565b600081519050919050565b600082825260208201905092915050565b6000612f3482612f0d565b612f3e8185612f18565b9350612f4e818560208601611de6565b612f5781611e10565b840191505092915050565b6000608082019050612f776000830187611f11565b612f846020830186611f11565b612f916040830185612027565b8181036060830152612fa38184612f29565b905095945050505050565b600081519050612fbd81611d3b565b92915050565b600060208284031215612fd957612fd8611d05565b5b6000612fe784828501612fae565b91505092915050565b7f4e487b7100000000000000000000000000000000000000000000000000000000600052601260045260246000fdfea264697066735822122099ecda2ae5165b861de21eef52107bedfc918d1a02b149568a08d8ff8207d39864736f6c63430008110033a2646970667358221220095e89ca218f2c3144114dbde7145d2d4ace115d9ad16deb270f2a09f107258964736f6c63430008110033",
  "devdoc": {
    "kind": "dev",
    "methods": {},
    "version": 1
  },
  "userdoc": {
    "kind": "user",
    "methods": {},
    "version": 1
  },
  "storageLayout": {
    "storage": [],
    "types": null
  }
}