{
    "_format": "hh-sol-artifact-1",
    "contractName": "MyNFT",
    "sourceName": "contracts/mynft1.sol",
    "abi": [
        {
            "inputs": [
                {
                    "internalType": "string",
                    "name": "name",
                    "type": "string"
                },
                {
                    "internalType": "string",
                    "name": "symbol",
                    "type": "string"
                },
                {
                    "internalType": "string",
                    "name": "urlMetadata",
                    "type": "string"
                }
            ],
            "stateMutability": "nonpayable",
            "type": "constructor"
        },
        {
            "anonymous": false,
            "inputs": [
                {
                    "indexed": true,
                    "internalType": "address",
                    "name": "owner",
                    "type": "address"
                },
                {
                    "indexed": true,
                    "internalType": "address",
                    "name": "approved",
                    "type": "address"
                },
                {
                    "indexed": true,
                    "internalType": "uint256",
                    "name": "tokenId",
                    "type": "uint256"
                }
            ],
            "name": "Approval",
            "type": "event"
        },
        {
            "anonymous": false,
            "inputs": [
                {
                    "indexed": true,
                    "internalType": "address",
                    "name": "owner",
                    "type": "address"
                },
                {
                    "indexed": true,
                    "internalType": "address",
                    "name": "operator",
                    "type": "address"
                },
                {
                    "indexed": false,
                    "internalType": "bool",
                    "name": "approved",
                    "type": "bool"
                }
            ],
            "name": "ApprovalForAll",
            "type": "event"
        },
        {
            "anonymous": false,
            "inputs": [
                {
                    "indexed": true,
                    "internalType": "address",
                    "name": "previousOwner",
                    "type": "address"
                },
                {
                    "indexed": true,
                    "internalType": "address",
                    "name": "newOwner",
                    "type": "address"
                }
            ],
            "name": "OwnershipTransferred",
            "type": "event"
        },
        {
            "anonymous": false,
            "inputs": [
                {
                    "indexed": true,
                    "internalType": "address",
                    "name": "from",
                    "type": "address"
                },
                {
                    "indexed": true,
                    "internalType": "address",
                    "name": "to",
                    "type": "address"
                },
                {
                    "indexed": true,
                    "internalType": "uint256",
                    "name": "tokenId",
                    "type": "uint256"
                }
            ],
            "name": "Transfer",
            "type": "event"
        },
        {
            "inputs": [
                {
                    "internalType": "address",
                    "name": "to",
                    "type": "address"
                },
                {
                    "internalType": "uint256",
                    "name": "tokenId",
                    "type": "uint256"
                }
            ],
            "name": "approve",
            "outputs": [],
            "stateMutability": "nonpayable",
            "type": "function"
        },
        {
            "inputs": [
                {
                    "internalType": "address",
                    "name": "owner",
                    "type": "address"
                }
            ],
            "name": "balanceOf",
            "outputs": [
                {
                    "internalType": "uint256",
                    "name": "",
                    "type": "uint256"
                }
            ],
            "stateMutability": "view",
            "type": "function"
        },
        {
            "inputs": [],
            "name": "contractURI",
            "outputs": [
                {
                    "internalType": "string",
                    "name": "",
                    "type": "string"
                }
            ],
            "stateMutability": "view",
            "type": "function"
        },
        {
            "inputs": [
                {
                    "internalType": "uint256",
                    "name": "tokenId",
                    "type": "uint256"
                }
            ],
            "name": "getApproved",
            "outputs": [
                {
                    "internalType": "address",
                    "name": "",
                    "type": "address"
                }
            ],
            "stateMutability": "view",
            "type": "function"
        },
        {
            "inputs": [
                {
                    "internalType": "address",
                    "name": "owner",
                    "type": "address"
                },
                {
                    "internalType": "address",
                    "name": "operator",
                    "type": "address"
                }
            ],
            "name": "isApprovedForAll",
            "outputs": [
                {
                    "internalType": "bool",
                    "name": "",
                    "type": "bool"
                }
            ],
            "stateMutability": "view",
            "type": "function"
        },
        {
            "inputs": [
                {
                    "internalType": "address",
                    "name": "to",
                    "type": "address"
                },
                {
                    "internalType": "string",
                    "name": "tokenURI",
                    "type": "string"
                }
            ],
            "name": "mint",
            "outputs": [
                {
                    "internalType": "uint256",
                    "name": "",
                    "type": "uint256"
                }
            ],
            "stateMutability": "nonpayable",
            "type": "function"
        },
        {
            "inputs": [],
            "name": "name",
            "outputs": [
                {
                    "internalType": "string",
                    "name": "",
                    "type": "string"
                }
            ],
            "stateMutability": "view",
            "type": "function"
        },
        {
            "inputs": [],
            "name": "owner",
            "outputs": [
                {
                    "internalType": "address",
                    "name": "",
                    "type": "address"
                }
            ],
            "stateMutability": "view",
            "type": "function"
        },
        {
            "inputs": [
                {
                    "internalType": "uint256",
                    "name": "tokenId",
                    "type": "uint256"
                }
            ],
            "name": "ownerOf",
            "outputs": [
                {
                    "internalType": "address",
                    "name": "",
                    "type": "address"
                }
            ],
            "stateMutability": "view",
            "type": "function"
        },
        {
            "inputs": [],
            "name": "renounceOwnership",
            "outputs": [],
            "stateMutability": "nonpayable",
            "type": "function"
        },
        {
            "inputs": [
                {
                    "internalType": "address",
                    "name": "from",
                    "type": "address"
                },
                {
                    "internalType": "address",
                    "name": "to",
                    "type": "address"
                },
                {
                    "internalType": "uint256",
                    "name": "tokenId",
                    "type": "uint256"
                }
            ],
            "name": "safeTransferFrom",
            "outputs": [],
            "stateMutability": "nonpayable",
            "type": "function"
        },
        {
            "inputs": [
                {
                    "internalType": "address",
                    "name": "from",
                    "type": "address"
                },
                {
                    "internalType": "address",
                    "name": "to",
                    "type": "address"
                },
                {
                    "internalType": "uint256",
                    "name": "tokenId",
                    "type": "uint256"
                },
                {
                    "internalType": "bytes",
                    "name": "data",
                    "type": "bytes"
                }
            ],
            "name": "safeTransferFrom",
            "outputs": [],
            "stateMutability": "nonpayable",
            "type": "function"
        },
        {
            "inputs": [
                {
                    "internalType": "address",
                    "name": "operator",
                    "type": "address"
                },
                {
                    "internalType": "bool",
                    "name": "approved",
                    "type": "bool"
                }
            ],
            "name": "setApprovalForAll",
            "outputs": [],
            "stateMutability": "nonpayable",
            "type": "function"
        },
        {
            "inputs": [
                {
                    "internalType": "bytes4",
                    "name": "interfaceId",
                    "type": "bytes4"
                }
            ],
            "name": "supportsInterface",
            "outputs": [
                {
                    "internalType": "bool",
                    "name": "",
                    "type": "bool"
                }
            ],
            "stateMutability": "view",
            "type": "function"
        },
        {
            "inputs": [],
            "name": "symbol",
            "outputs": [
                {
                    "internalType": "string",
                    "name": "",
                    "type": "string"
                }
            ],
            "stateMutability": "view",
            "type": "function"
        },
        {
            "inputs": [
                {
                    "internalType": "uint256",
                    "name": "tokenId",
                    "type": "uint256"
                }
            ],
            "name": "tokenURI",
            "outputs": [
                {
                    "internalType": "string",
                    "name": "",
                    "type": "string"
                }
            ],
            "stateMutability": "view",
            "type": "function"
        },
        {
            "inputs": [],
            "name": "totalSupply",
            "outputs": [
                {
                    "internalType": "uint256",
                    "name": "",
                    "type": "uint256"
                }
            ],
            "stateMutability": "view",
            "type": "function"
        },
        {
            "inputs": [
                {
                    "internalType": "address",
                    "name": "from",
                    "type": "address"
                },
                {
                    "internalType": "address",
                    "name": "to",
                    "type": "address"
                },
                {
                    "internalType": "uint256",
                    "name": "tokenId",
                    "type": "uint256"
                }
            ],
            "name": "transferFrom",
            "outputs": [],
            "stateMutability": "nonpayable",
            "type": "function"
        },
        {
            "inputs": [
                {
                    "internalType": "address",
                    "name": "newOwner",
                    "type": "address"
                }
            ],
            "name": "transferOwnership",
            "outputs": [],
            "stateMutability": "nonpayable",
            "type": "function"
        },
        {
            "inputs": [
                {
                    "internalType": "string",
                    "name": "url",
                    "type": "string"
                }
            ],
            "name": "updateContractURI",
            "outputs": [],
            "stateMutability": "nonpayable",
            "type": "function"
        }
    ],
    "bytecode": "0x60806040523480156200001157600080fd5b50604051620039f1380380620039f183398181016040528101906200003791906200030c565b828281600090816200004a919062000610565b5080600190816200005c919062000610565b5050506200007f62000073620000ab60201b60201c565b620000b360201b60201c565b6200009033620000b360201b60201c565b8060099081620000a1919062000610565b50505050620006f7565b600033905090565b6000600760009054906101000a900473ffffffffffffffffffffffffffffffffffffffff16905081600760006101000a81548173ffffffffffffffffffffffffffffffffffffffff021916908373ffffffffffffffffffffffffffffffffffffffff1602179055508173ffffffffffffffffffffffffffffffffffffffff168173ffffffffffffffffffffffffffffffffffffffff167f8be0079c531659141344cd1fd0a4f28419497f9722a3daafe3b4186f6b6457e060405160405180910390a35050565b6000604051905090565b600080fd5b600080fd5b600080fd5b600080fd5b6000601f19601f8301169050919050565b7f4e487b7100000000000000000000000000000000000000000000000000000000600052604160045260246000fd5b620001e28262000197565b810181811067ffffffffffffffff82111715620002045762000203620001a8565b5b80604052505050565b60006200021962000179565b9050620002278282620001d7565b919050565b600067ffffffffffffffff8211156200024a5762000249620001a8565b5b620002558262000197565b9050602081019050919050565b60005b838110156200028257808201518184015260208101905062000265565b60008484015250505050565b6000620002a56200029f846200022c565b6200020d565b905082815260208101848484011115620002c457620002c362000192565b5b620002d184828562000262565b509392505050565b600082601f830112620002f157620002f06200018d565b5b8151620003038482602086016200028e565b91505092915050565b60008060006060848603121562000328576200032762000183565b5b600084015167ffffffffffffffff81111562000349576200034862000188565b5b6200035786828701620002d9565b935050602084015167ffffffffffffffff8111156200037b576200037a62000188565b5b6200038986828701620002d9565b925050604084015167ffffffffffffffff811115620003ad57620003ac62000188565b5b620003bb86828701620002d9565b9150509250925092565b600081519050919050565b7f4e487b7100000000000000000000000000000000000000000000000000000000600052602260045260246000fd5b600060028204905060018216806200041857607f821691505b6020821081036200042e576200042d620003d0565b5b50919050565b60008190508160005260206000209050919050565b60006020601f8301049050919050565b600082821b905092915050565b600060088302620004987fffffffffffffffffffffffffffffffffffffffffffffffffffffffffffffffff8262000459565b620004a4868362000459565b95508019841693508086168417925050509392505050565b6000819050919050565b6000819050919050565b6000620004f1620004eb620004e584620004bc565b620004c6565b620004bc565b9050919050565b6000819050919050565b6200050d83620004d0565b620005256200051c82620004f8565b84845462000466565b825550505050565b600090565b6200053c6200052d565b6200054981848462000502565b505050565b5b8181101562000571576200056560008262000532565b6001810190506200054f565b5050565b601f821115620005c0576200058a8162000434565b620005958462000449565b81016020851015620005a5578190505b620005bd620005b48562000449565b8301826200054e565b50505b505050565b600082821c905092915050565b6000620005e560001984600802620005c5565b1980831691505092915050565b6000620006008383620005d2565b9150826002028217905092915050565b6200061b82620003c5565b67ffffffffffffffff811115620006375762000636620001a8565b5b620006438254620003ff565b6200065082828562000575565b600060209050601f83116001811462000688576000841562000673578287015190505b6200067f8582620005f2565b865550620006ef565b601f198416620006988662000434565b60005b82811015620006c2578489015182556001820191506020850194506020810190506200069b565b86831015620006e25784890151620006de601f891682620005d2565b8355505b6001600288020188555050505b505050505050565b6132ea80620007076000396000f3fe608060405234801561001057600080fd5b506004361061012c5760003560e01c80637e5b1e24116100ad578063c87b56dd11610071578063c87b56dd1461031b578063d0def5211461034b578063e8a3d4851461037b578063e985e9c514610399578063f2fde38b146103c95761012c565b80637e5b1e241461028b5780638da5cb5b146102a757806395d89b41146102c5578063a22cb465146102e3578063b88d4fde146102ff5761012c565b806323b872dd116100f457806323b872dd146101e957806342842e0e146102055780636352211e1461022157806370a0823114610251578063715018a6146102815761012c565b806301ffc9a71461013157806306fdde0314610161578063081812fc1461017f578063095ea7b3146101af57806318160ddd146101cb575b600080fd5b61014b60048036038101906101469190611f0a565b6103e5565b6040516101589190611f52565b60405180910390f35b6101696104c7565b6040516101769190611ffd565b60405180910390f35b61019960048036038101906101949190612055565b610559565b6040516101a691906120c3565b60405180910390f35b6101c960048036038101906101c4919061210a565b61059f565b005b6101d36106b6565b6040516101e09190612159565b60405180910390f35b61020360048036038101906101fe9190612174565b6106bc565b005b61021f600480360381019061021a9190612174565b61071c565b005b61023b60048036038101906102369190612055565b61073c565b60405161024891906120c3565b60405180910390f35b61026b600480360381019061026691906121c7565b6107c2565b6040516102789190612159565b60405180910390f35b610289610879565b005b6102a560048036038101906102a09190612329565b61088d565b005b6102af610981565b6040516102bc91906120c3565b60405180910390f35b6102cd6109ab565b6040516102da9190611ffd565b60405180910390f35b6102fd60048036038101906102f8919061239e565b610a3d565b005b6103196004803603810190610314919061247f565b610a53565b005b61033560048036038101906103309190612055565b610ab5565b6040516103429190611ffd565b60405180910390f35b61036560048036038101906103609190612502565b610bc7565b6040516103729190612159565b60405180910390f35b610383610c0e565b6040516103909190611ffd565b60405180910390f35b6103b360048036038101906103ae919061255e565b610ca0565b6040516103c09190611f52565b60405180910390f35b6103e360048036038101906103de91906121c7565b610d34565b005b60007f80ac58cd000000000000000000000000000000000000000000000000000000007bffffffffffffffffffffffffffffffffffffffffffffffffffffffff1916827bffffffffffffffffffffffffffffffffffffffffffffffffffffffff191614806104b057507f5b5e139f000000000000000000000000000000000000000000000000000000007bffffffffffffffffffffffffffffffffffffffffffffffffffffffff1916827bffffffffffffffffffffffffffffffffffffffffffffffffffffffff1916145b806104c057506104bf82610db7565b5b9050919050565b6060600080546104d6906125cd565b80601f0160208091040260200160405190810160405280929190818152602001828054610502906125cd565b801561054f5780601f106105245761010080835404028352916020019161054f565b820191906000526020600020905b81548152906001019060200180831161053257829003601f168201915b5050505050905090565b600061056482610e21565b6004600083815260200190815260200160002060009054906101000a900473ffffffffffffffffffffffffffffffffffffffff169050919050565b60006105aa8261073c565b90508073ffffffffffffffffffffffffffffffffffffffff168373ffffffffffffffffffffffffffffffffffffffff160361061a576040517f08c379a000000000000000000000000000000000000000000000000000000000815260040161061190612670565b60405180910390fd5b8073ffffffffffffffffffffffffffffffffffffffff16610639610e6c565b73ffffffffffffffffffffffffffffffffffffffff161480610668575061066781610662610e6c565b610ca0565b5b6106a7576040517f08c379a000000000000000000000000000000000000000000000000000000000815260040161069e90612702565b60405180910390fd5b6106b18383610e74565b505050565b60085481565b6106cd6106c7610e6c565b82610f2d565b61070c576040517f08c379a000000000000000000000000000000000000000000000000000000000815260040161070390612794565b60405180910390fd5b610717838383610fc2565b505050565b61073783838360405180602001604052806000815250610a53565b505050565b600080610748836112bb565b9050600073ffffffffffffffffffffffffffffffffffffffff168173ffffffffffffffffffffffffffffffffffffffff16036107b9576040517f08c379a00000000000000000000000000000000000000000000000000000000081526004016107b090612800565b60405180910390fd5b80915050919050565b60008073ffffffffffffffffffffffffffffffffffffffff168273ffffffffffffffffffffffffffffffffffffffff1603610832576040517f08c379a000000000000000000000000000000000000000000000000000000000815260040161082990612892565b60405180910390fd5b600360008373ffffffffffffffffffffffffffffffffffffffff1673ffffffffffffffffffffffffffffffffffffffff168152602001908152602001600020549050919050565b6108816112f8565b61088b6000611376565b565b6108956112f8565b6000600980546108a4906125cd565b80601f01602080910402602001604051908101604052809291908181526020018280546108d0906125cd565b801561091d5780601f106108f25761010080835404028352916020019161091d565b820191906000526020600020905b81548152906001019060200180831161090057829003601f168201915b5050505050905061092e818361143c565b61096d576040517f08c379a000000000000000000000000000000000000000000000000000000000815260040161096490612924565b60405180910390fd5b816009908161097c9190612af0565b505050565b6000600760009054906101000a900473ffffffffffffffffffffffffffffffffffffffff16905090565b6060600180546109ba906125cd565b80601f01602080910402602001604051908101604052809291908181526020018280546109e6906125cd565b8015610a335780601f10610a0857610100808354040283529160200191610a33565b820191906000526020600020905b815481529060010190602001808311610a1657829003601f168201915b5050505050905090565b610a4f610a48610e6c565b8383611495565b5050565b610a64610a5e610e6c565b83610f2d565b610aa3576040517f08c379a0000000000000000000000000000000000000000000000000000000008152600401610a9a90612794565b60405180910390fd5b610aaf84848484611601565b50505050565b6060610ac082610e21565b6000600660008481526020019081526020016000208054610ae0906125cd565b80601f0160208091040260200160405190810160405280929190818152602001828054610b0c906125cd565b8015610b595780601f10610b2e57610100808354040283529160200191610b59565b820191906000526020600020905b815481529060010190602001808311610b3c57829003601f168201915b505050505090506000610b6a61165d565b90506000815103610b7f578192505050610bc2565b600082511115610bb4578082604051602001610b9c929190612bfe565b60405160208183030381529060405292505050610bc2565b610bbd84611674565b925050505b919050565b6000610bd16112f8565b60006008549050610be284826116dc565b610bec81846118f9565b60086000815480929190610bff90612c51565b91905055508091505092915050565b606060098054610c1d906125cd565b80601f0160208091040260200160405190810160405280929190818152602001828054610c49906125cd565b8015610c965780601f10610c6b57610100808354040283529160200191610c96565b820191906000526020600020905b815481529060010190602001808311610c7957829003601f168201915b5050505050905090565b6000600560008473ffffffffffffffffffffffffffffffffffffffff1673ffffffffffffffffffffffffffffffffffffffff16815260200190815260200160002060008373ffffffffffffffffffffffffffffffffffffffff1673ffffffffffffffffffffffffffffffffffffffff16815260200190815260200160002060009054906101000a900460ff16905092915050565b610d3c6112f8565b600073ffffffffffffffffffffffffffffffffffffffff168173ffffffffffffffffffffffffffffffffffffffff1603610dab576040517f08c379a0000000000000000000000000000000000000000000000000000000008152600401610da290612d0b565b60405180910390fd5b610db481611376565b50565b60007f01ffc9a7000000000000000000000000000000000000000000000000000000007bffffffffffffffffffffffffffffffffffffffffffffffffffffffff1916827bffffffffffffffffffffffffffffffffffffffffffffffffffffffff1916149050919050565b610e2a81611966565b610e69576040517f08c379a0000000000000000000000000000000000000000000000000000000008152600401610e6090612800565b60405180910390fd5b50565b600033905090565b816004600083815260200190815260200160002060006101000a81548173ffffffffffffffffffffffffffffffffffffffff021916908373ffffffffffffffffffffffffffffffffffffffff160217905550808273ffffffffffffffffffffffffffffffffffffffff16610ee78361073c565b73ffffffffffffffffffffffffffffffffffffffff167f8c5be1e5ebec7d5bd14f71427d1e84f3dd0314c0f7b2291e5b200ac8c7c3b92560405160405180910390a45050565b600080610f398361073c565b90508073ffffffffffffffffffffffffffffffffffffffff168473ffffffffffffffffffffffffffffffffffffffff161480610f7b5750610f7a8185610ca0565b5b80610fb957508373ffffffffffffffffffffffffffffffffffffffff16610fa184610559565b73ffffffffffffffffffffffffffffffffffffffff16145b91505092915050565b8273ffffffffffffffffffffffffffffffffffffffff16610fe28261073c565b73ffffffffffffffffffffffffffffffffffffffff1614611038576040517f08c379a000000000000000000000000000000000000000000000000000000000815260040161102f90612d9d565b60405180910390fd5b600073ffffffffffffffffffffffffffffffffffffffff168273ffffffffffffffffffffffffffffffffffffffff16036110a7576040517f08c379a000000000000000000000000000000000000000000000000000000000815260040161109e90612e2f565b60405180910390fd5b6110b483838360016119a7565b8273ffffffffffffffffffffffffffffffffffffffff166110d48261073c565b73ffffffffffffffffffffffffffffffffffffffff161461112a576040517f08c379a000000000000000000000000000000000000000000000000000000000815260040161112190612d9d565b60405180910390fd5b6004600082815260200190815260200160002060006101000a81549073ffffffffffffffffffffffffffffffffffffffff02191690556001600360008573ffffffffffffffffffffffffffffffffffffffff1673ffffffffffffffffffffffffffffffffffffffff168152602001908152602001600020600082825403925050819055506001600360008473ffffffffffffffffffffffffffffffffffffffff1673ffffffffffffffffffffffffffffffffffffffff16815260200190815260200160002060008282540192505081905550816002600083815260200190815260200160002060006101000a81548173ffffffffffffffffffffffffffffffffffffffff021916908373ffffffffffffffffffffffffffffffffffffffff160217905550808273ffffffffffffffffffffffffffffffffffffffff168473ffffffffffffffffffffffffffffffffffffffff167fddf252ad1be2c89b69c2b068fc378daa952ba7f163c4a11628f55a4df523b3ef60405160405180910390a46112b68383836001611acd565b505050565b60006002600083815260200190815260200160002060009054906101000a900473ffffffffffffffffffffffffffffffffffffffff169050919050565b611300610e6c565b73ffffffffffffffffffffffffffffffffffffffff1661131e610981565b73ffffffffffffffffffffffffffffffffffffffff1614611374576040517f08c379a000000000000000000000000000000000000000000000000000000000815260040161136b90612e9b565b60405180910390fd5b565b6000600760009054906101000a900473ffffffffffffffffffffffffffffffffffffffff16905081600760006101000a81548173ffffffffffffffffffffffffffffffffffffffff021916908373ffffffffffffffffffffffffffffffffffffffff1602179055508173ffffffffffffffffffffffffffffffffffffffff168173ffffffffffffffffffffffffffffffffffffffff167f8be0079c531659141344cd1fd0a4f28419497f9722a3daafe3b4186f6b6457e060405160405180910390a35050565b60008160405160200161144f9190612ebb565b60405160208183030381529060405280519060200120836040516020016114769190612ebb565b6040516020818303038152906040528051906020012014905092915050565b8173ffffffffffffffffffffffffffffffffffffffff168373ffffffffffffffffffffffffffffffffffffffff1603611503576040517f08c379a00000000000000000000000000000000000000000000000000000000081526004016114fa90612f1e565b60405180910390fd5b80600560008573ffffffffffffffffffffffffffffffffffffffff1673ffffffffffffffffffffffffffffffffffffffff16815260200190815260200160002060008473ffffffffffffffffffffffffffffffffffffffff1673ffffffffffffffffffffffffffffffffffffffff16815260200190815260200160002060006101000a81548160ff0219169083151502179055508173ffffffffffffffffffffffffffffffffffffffff168373ffffffffffffffffffffffffffffffffffffffff167f17307eab39ab6107e8899845ad3d59bd9653f200f220920489ca2b5937696c31836040516115f49190611f52565b60405180910390a3505050565b61160c848484610fc2565b61161884848484611ad3565b611657576040517f08c379a000000000000000000000000000000000000000000000000000000000815260040161164e90612fb0565b60405180910390fd5b50505050565b606060405180602001604052806000815250905090565b606061167f82610e21565b600061168961165d565b905060008151116116a957604051806020016040528060008152506116d4565b806116b384611c5a565b6040516020016116c4929190612bfe565b6040516020818303038152906040525b915050919050565b600073ffffffffffffffffffffffffffffffffffffffff168273ffffffffffffffffffffffffffffffffffffffff160361174b576040517f08c379a00000000000000000000000000000000000000000000000000000000081526004016117429061301c565b60405180910390fd5b61175481611966565b15611794576040517f08c379a000000000000000000000000000000000000000000000000000000000815260040161178b90613088565b60405180910390fd5b6117a26000838360016119a7565b6117ab81611966565b156117eb576040517f08c379a00000000000000000000000000000000000000000000000000000000081526004016117e290613088565b60405180910390fd5b6001600360008473ffffffffffffffffffffffffffffffffffffffff1673ffffffffffffffffffffffffffffffffffffffff16815260200190815260200160002060008282540192505081905550816002600083815260200190815260200160002060006101000a81548173ffffffffffffffffffffffffffffffffffffffff021916908373ffffffffffffffffffffffffffffffffffffffff160217905550808273ffffffffffffffffffffffffffffffffffffffff16600073ffffffffffffffffffffffffffffffffffffffff167fddf252ad1be2c89b69c2b068fc378daa952ba7f163c4a11628f55a4df523b3ef60405160405180910390a46118f5600083836001611acd565b5050565b61190282611966565b611941576040517f08c379a00000000000000000000000000000000000000000000000000000000081526004016119389061311a565b60405180910390fd5b806006600084815260200190815260200160002090816119619190612af0565b505050565b60008073ffffffffffffffffffffffffffffffffffffffff16611988836112bb565b73ffffffffffffffffffffffffffffffffffffffff1614159050919050565b6001811115611ac757600073ffffffffffffffffffffffffffffffffffffffff168473ffffffffffffffffffffffffffffffffffffffff1614611a3b5780600360008673ffffffffffffffffffffffffffffffffffffffff1673ffffffffffffffffffffffffffffffffffffffff1681526020019081526020016000206000828254611a33919061313a565b925050819055505b600073ffffffffffffffffffffffffffffffffffffffff168373ffffffffffffffffffffffffffffffffffffffff1614611ac65780600360008573ffffffffffffffffffffffffffffffffffffffff1673ffffffffffffffffffffffffffffffffffffffff1681526020019081526020016000206000828254611abe919061316e565b925050819055505b5b50505050565b50505050565b6000611af48473ffffffffffffffffffffffffffffffffffffffff16611d28565b15611c4d578373ffffffffffffffffffffffffffffffffffffffff1663150b7a02611b1d610e6c565b8786866040518563ffffffff1660e01b8152600401611b3f94939291906131f7565b6020604051808303816000875af1925050508015611b7b57506040513d601f19601f82011682018060405250810190611b789190613258565b60015b611bfd573d8060008114611bab576040519150601f19603f3d011682016040523d82523d6000602084013e611bb0565b606091505b506000815103611bf5576040517f08c379a0000000000000000000000000000000000000000000000000000000008152600401611bec90612fb0565b60405180910390fd5b805181602001fd5b63150b7a0260e01b7bffffffffffffffffffffffffffffffffffffffffffffffffffffffff1916817bffffffffffffffffffffffffffffffffffffffffffffffffffffffff191614915050611c52565b600190505b949350505050565b606060006001611c6984611d4b565b01905060008167ffffffffffffffff811115611c8857611c876121fe565b5b6040519080825280601f01601f191660200182016040528015611cba5781602001600182028036833780820191505090505b509050600082602001820190505b600115611d1d578080600190039150507f3031323334353637383961626364656600000000000000000000000000000000600a86061a8153600a8581611d1157611d10613285565b5b04945060008503611cc8575b819350505050919050565b6000808273ffffffffffffffffffffffffffffffffffffffff163b119050919050565b600080600090507a184f03e93ff9f4daa797ed6e38ed64bf6a1f0100000000000000008310611da9577a184f03e93ff9f4daa797ed6e38ed64bf6a1f0100000000000000008381611d9f57611d9e613285565b5b0492506040810190505b6d04ee2d6d415b85acef81000000008310611de6576d04ee2d6d415b85acef81000000008381611ddc57611ddb613285565b5b0492506020810190505b662386f26fc100008310611e1557662386f26fc100008381611e0b57611e0a613285565b5b0492506010810190505b6305f5e1008310611e3e576305f5e1008381611e3457611e33613285565b5b0492506008810190505b6127108310611e63576127108381611e5957611e58613285565b5b0492506004810190505b60648310611e865760648381611e7c57611e7b613285565b5b0492506002810190505b600a8310611e95576001810190505b80915050919050565b6000604051905090565b600080fd5b600080fd5b60007fffffffff0000000000000000000000000000000000000000000000000000000082169050919050565b611ee781611eb2565b8114611ef257600080fd5b50565b600081359050611f0481611ede565b92915050565b600060208284031215611f2057611f1f611ea8565b5b6000611f2e84828501611ef5565b91505092915050565b60008115159050919050565b611f4c81611f37565b82525050565b6000602082019050611f676000830184611f43565b92915050565b600081519050919050565b600082825260208201905092915050565b60005b83811015611fa7578082015181840152602081019050611f8c565b60008484015250505050565b6000601f19601f8301169050919050565b6000611fcf82611f6d565b611fd98185611f78565b9350611fe9818560208601611f89565b611ff281611fb3565b840191505092915050565b600060208201905081810360008301526120178184611fc4565b905092915050565b6000819050919050565b6120328161201f565b811461203d57600080fd5b50565b60008135905061204f81612029565b92915050565b60006020828403121561206b5761206a611ea8565b5b600061207984828501612040565b91505092915050565b600073ffffffffffffffffffffffffffffffffffffffff82169050919050565b60006120ad82612082565b9050919050565b6120bd816120a2565b82525050565b60006020820190506120d860008301846120b4565b92915050565b6120e7816120a2565b81146120f257600080fd5b50565b600081359050612104816120de565b92915050565b6000806040838503121561212157612120611ea8565b5b600061212f858286016120f5565b925050602061214085828601612040565b9150509250929050565b6121538161201f565b82525050565b600060208201905061216e600083018461214a565b92915050565b60008060006060848603121561218d5761218c611ea8565b5b600061219b868287016120f5565b93505060206121ac868287016120f5565b92505060406121bd86828701612040565b9150509250925092565b6000602082840312156121dd576121dc611ea8565b5b60006121eb848285016120f5565b91505092915050565b600080fd5b600080fd5b7f4e487b7100000000000000000000000000000000000000000000000000000000600052604160045260246000fd5b61223682611fb3565b810181811067ffffffffffffffff82111715612255576122546121fe565b5b80604052505050565b6000612268611e9e565b9050612274828261222d565b919050565b600067ffffffffffffffff821115612294576122936121fe565b5b61229d82611fb3565b9050602081019050919050565b82818337600083830152505050565b60006122cc6122c784612279565b61225e565b9050828152602081018484840111156122e8576122e76121f9565b5b6122f38482856122aa565b509392505050565b600082601f8301126123105761230f6121f4565b5b81356123208482602086016122b9565b91505092915050565b60006020828403121561233f5761233e611ea8565b5b600082013567ffffffffffffffff81111561235d5761235c611ead565b5b612369848285016122fb565b91505092915050565b61237b81611f37565b811461238657600080fd5b50565b60008135905061239881612372565b92915050565b600080604083850312156123b5576123b4611ea8565b5b60006123c3858286016120f5565b92505060206123d485828601612389565b9150509250929050565b600067ffffffffffffffff8211156123f9576123f86121fe565b5b61240282611fb3565b9050602081019050919050565b600061242261241d846123de565b61225e565b90508281526020810184848401111561243e5761243d6121f9565b5b6124498482856122aa565b509392505050565b600082601f830112612466576124656121f4565b5b813561247684826020860161240f565b91505092915050565b6000806000806080858703121561249957612498611ea8565b5b60006124a7878288016120f5565b94505060206124b8878288016120f5565b93505060406124c987828801612040565b925050606085013567ffffffffffffffff8111156124ea576124e9611ead565b5b6124f687828801612451565b91505092959194509250565b6000806040838503121561251957612518611ea8565b5b6000612527858286016120f5565b925050602083013567ffffffffffffffff81111561254857612547611ead565b5b612554858286016122fb565b9150509250929050565b6000806040838503121561257557612574611ea8565b5b6000612583858286016120f5565b9250506020612594858286016120f5565b9150509250929050565b7f4e487b7100000000000000000000000000000000000000000000000000000000600052602260045260246000fd5b600060028204905060018216806125e557607f821691505b6020821081036125f8576125f761259e565b5b50919050565b7f4552433732313a20617070726f76616c20746f2063757272656e74206f776e6560008201527f7200000000000000000000000000000000000000000000000000000000000000602082015250565b600061265a602183611f78565b9150612665826125fe565b604082019050919050565b600060208201905081810360008301526126898161264d565b9050919050565b7f4552433732313a20617070726f76652063616c6c6572206973206e6f7420746f60008201527f6b656e206f776e6572206f7220617070726f76656420666f7220616c6c000000602082015250565b60006126ec603d83611f78565b91506126f782612690565b604082019050919050565b6000602082019050818103600083015261271b816126df565b9050919050565b7f4552433732313a2063616c6c6572206973206e6f7420746f6b656e206f776e6560008201527f72206f7220617070726f76656400000000000000000000000000000000000000602082015250565b600061277e602d83611f78565b915061278982612722565b604082019050919050565b600060208201905081810360008301526127ad81612771565b9050919050565b7f4552433732313a20696e76616c696420746f6b656e2049440000000000000000600082015250565b60006127ea601883611f78565b91506127f5826127b4565b602082019050919050565b60006020820190508181036000830152612819816127dd565b9050919050565b7f4552433732313a2061646472657373207a65726f206973206e6f74206120766160008201527f6c6964206f776e65720000000000000000000000000000000000000000000000602082015250565b600061287c602983611f78565b915061288782612820565b604082019050919050565b600060208201905081810360008301526128ab8161286f565b9050919050565b7f4e45572055726c206d757374206265206469666672656e742066726f6d206f6c60008201527f6400000000000000000000000000000000000000000000000000000000000000602082015250565b600061290e602183611f78565b9150612919826128b2565b604082019050919050565b6000602082019050818103600083015261293d81612901565b9050919050565b60008190508160005260206000209050919050565b60006020601f8301049050919050565b600082821b905092915050565b6000600883026129a67fffffffffffffffffffffffffffffffffffffffffffffffffffffffffffffffff82612969565b6129b08683612969565b95508019841693508086168417925050509392505050565b6000819050919050565b60006129ed6129e86129e38461201f565b6129c8565b61201f565b9050919050565b6000819050919050565b612a07836129d2565b612a1b612a13826129f4565b848454612976565b825550505050565b600090565b612a30612a23565b612a3b8184846129fe565b505050565b5b81811015612a5f57612a54600082612a28565b600181019050612a41565b5050565b601f821115612aa457612a7581612944565b612a7e84612959565b81016020851015612a8d578190505b612aa1612a9985612959565b830182612a40565b50505b505050565b600082821c905092915050565b6000612ac760001984600802612aa9565b1980831691505092915050565b6000612ae08383612ab6565b9150826002028217905092915050565b612af982611f6d565b67ffffffffffffffff811115612b1257612b116121fe565b5b612b1c82546125cd565b612b27828285612a63565b600060209050601f831160018114612b5a5760008415612b48578287015190505b612b528582612ad4565b865550612bba565b601f198416612b6886612944565b60005b82811015612b9057848901518255600182019150602085019450602081019050612b6b565b86831015612bad5784890151612ba9601f891682612ab6565b8355505b6001600288020188555050505b505050505050565b600081905092915050565b6000612bd882611f6d565b612be28185612bc2565b9350612bf2818560208601611f89565b80840191505092915050565b6000612c0a8285612bcd565b9150612c168284612bcd565b91508190509392505050565b7f4e487b7100000000000000000000000000000000000000000000000000000000600052601160045260246000fd5b6000612c5c8261201f565b91507fffffffffffffffffffffffffffffffffffffffffffffffffffffffffffffffff8203612c8e57612c8d612c22565b5b600182019050919050565b7f4f776e61626c653a206e6577206f776e657220697320746865207a65726f206160008201527f6464726573730000000000000000000000000000000000000000000000000000602082015250565b6000612cf5602683611f78565b9150612d0082612c99565b604082019050919050565b60006020820190508181036000830152612d2481612ce8565b9050919050565b7f4552433732313a207472616e736665722066726f6d20696e636f72726563742060008201527f6f776e6572000000000000000000000000000000000000000000000000000000602082015250565b6000612d87602583611f78565b9150612d9282612d2b565b604082019050919050565b60006020820190508181036000830152612db681612d7a565b9050919050565b7f4552433732313a207472616e7366657220746f20746865207a65726f2061646460008201527f7265737300000000000000000000000000000000000000000000000000000000602082015250565b6000612e19602483611f78565b9150612e2482612dbd565b604082019050919050565b60006020820190508181036000830152612e4881612e0c565b9050919050565b7f4f776e61626c653a2063616c6c6572206973206e6f7420746865206f776e6572600082015250565b6000612e85602083611f78565b9150612e9082612e4f565b602082019050919050565b60006020820190508181036000830152612eb481612e78565b9050919050565b6000612ec78284612bcd565b915081905092915050565b7f4552433732313a20617070726f766520746f2063616c6c657200000000000000600082015250565b6000612f08601983611f78565b9150612f1382612ed2565b602082019050919050565b60006020820190508181036000830152612f3781612efb565b9050919050565b7f4552433732313a207472616e7366657220746f206e6f6e20455243373231526560008201527f63656976657220696d706c656d656e7465720000000000000000000000000000602082015250565b6000612f9a603283611f78565b9150612fa582612f3e565b604082019050919050565b60006020820190508181036000830152612fc981612f8d565b9050919050565b7f4552433732313a206d696e7420746f20746865207a65726f2061646472657373600082015250565b6000613006602083611f78565b915061301182612fd0565b602082019050919050565b6000602082019050818103600083015261303581612ff9565b9050919050565b7f4552433732313a20746f6b656e20616c7265616479206d696e74656400000000600082015250565b6000613072601c83611f78565b915061307d8261303c565b602082019050919050565b600060208201905081810360008301526130a181613065565b9050919050565b7f45524337323155524953746f726167653a2055524920736574206f66206e6f6e60008201527f6578697374656e7420746f6b656e000000000000000000000000000000000000602082015250565b6000613104602e83611f78565b915061310f826130a8565b604082019050919050565b60006020820190508181036000830152613133816130f7565b9050919050565b60006131458261201f565b91506131508361201f565b925082820390508181111561316857613167612c22565b5b92915050565b60006131798261201f565b91506131848361201f565b925082820190508082111561319c5761319b612c22565b5b92915050565b600081519050919050565b600082825260208201905092915050565b60006131c9826131a2565b6131d381856131ad565b93506131e3818560208601611f89565b6131ec81611fb3565b840191505092915050565b600060808201905061320c60008301876120b4565b61321960208301866120b4565b613226604083018561214a565b818103606083015261323881846131be565b905095945050505050565b60008151905061325281611ede565b92915050565b60006020828403121561326e5761326d611ea8565b5b600061327c84828501613243565b91505092915050565b7f4e487b7100000000000000000000000000000000000000000000000000000000600052601260045260246000fdfea2646970667358221220e5274c561e4500144611396590e39bb6f90713a0268d680c7a9aa8a0ff079e3c64736f6c63430008110033",
    "linkReferences": {},
    "deployedLinkReferences": {}
}