{
  "address": "0xB5A1F7430e3fC6744995462ccd95e7b607FDaBBE",
  "abi": [
    {
      "inputs": [],
      "stateMutability": "nonpayable",
      "type": "constructor"
    },
    {
      "anonymous": false,
      "inputs": [
        {
          "indexed": true,
          "internalType": "address",
          "name": "owner",
          "type": "address"
        },
        {
          "indexed": true,
          "internalType": "address",
          "name": "collectionAddress",
          "type": "address"
        },
        {
          "indexed": false,
          "internalType": "uint256",
          "name": "tokenId",
          "type": "uint256"
        },
        {
          "indexed": false,
          "internalType": "uint256",
          "name": "Price",
          "type": "uint256"
        },
        {
          "indexed": false,
          "internalType": "bool",
          "name": "aproval",
          "type": "bool"
        }
      ],
      "name": "itemCreation",
      "type": "event"
    },
    {
      "anonymous": false,
      "inputs": [
        {
          "indexed": true,
          "internalType": "address",
          "name": "owner",
          "type": "address"
        },
        {
          "indexed": true,
          "internalType": "address",
          "name": "collectionAddress",
          "type": "address"
        },
        {
          "indexed": false,
          "internalType": "uint256",
          "name": "tokenId",
          "type": "uint256"
        }
      ],
      "name": "listingCancled",
      "type": "event"
    },
    {
      "anonymous": false,
      "inputs": [
        {
          "indexed": true,
          "internalType": "address",
          "name": "owner",
          "type": "address"
        },
        {
          "indexed": true,
          "internalType": "address",
          "name": "collectionAddress",
          "type": "address"
        },
        {
          "indexed": false,
          "internalType": "uint256",
          "name": "tokenId",
          "type": "uint256"
        },
        {
          "indexed": false,
          "internalType": "uint256",
          "name": "Price",
          "type": "uint256"
        }
      ],
      "name": "listingSold",
      "type": "event"
    },
    {
      "anonymous": false,
      "inputs": [
        {
          "indexed": true,
          "internalType": "address",
          "name": "owner",
          "type": "address"
        },
        {
          "indexed": true,
          "internalType": "address",
          "name": "collectionAddress",
          "type": "address"
        },
        {
          "indexed": false,
          "internalType": "uint256",
          "name": "tokenId",
          "type": "uint256"
        },
        {
          "indexed": false,
          "internalType": "uint256",
          "name": "listingPrice",
          "type": "uint256"
        }
      ],
      "name": "newListingCreated",
      "type": "event"
    },
    {
      "anonymous": false,
      "inputs": [
        {
          "indexed": true,
          "internalType": "address",
          "name": "offerer",
          "type": "address"
        },
        {
          "indexed": true,
          "internalType": "address",
          "name": "collectionAddress",
          "type": "address"
        },
        {
          "indexed": true,
          "internalType": "address",
          "name": "owner",
          "type": "address"
        },
        {
          "indexed": false,
          "internalType": "uint256",
          "name": "tokenId",
          "type": "uint256"
        },
        {
          "indexed": false,
          "internalType": "uint256",
          "name": "Price",
          "type": "uint256"
        },
        {
          "indexed": false,
          "internalType": "uint256",
          "name": "Endtime",
          "type": "uint256"
        }
      ],
      "name": "offerAccepted",
      "type": "event"
    },
    {
      "anonymous": false,
      "inputs": [
        {
          "indexed": true,
          "internalType": "address",
          "name": "offerer",
          "type": "address"
        },
        {
          "indexed": true,
          "internalType": "address",
          "name": "owner",
          "type": "address"
        },
        {
          "indexed": true,
          "internalType": "address",
          "name": "collectionAddress",
          "type": "address"
        },
        {
          "indexed": false,
          "internalType": "uint256",
          "name": "tokenId",
          "type": "uint256"
        },
        {
          "indexed": false,
          "internalType": "uint256",
          "name": "Price",
          "type": "uint256"
        },
        {
          "indexed": false,
          "internalType": "uint256",
          "name": "Endtime",
          "type": "uint256"
        }
      ],
      "name": "offerCreated",
      "type": "event"
    },
    {
      "anonymous": false,
      "inputs": [
        {
          "indexed": true,
          "internalType": "address",
          "name": "offerer",
          "type": "address"
        },
        {
          "indexed": true,
          "internalType": "address",
          "name": "collectionAddress",
          "type": "address"
        },
        {
          "indexed": false,
          "internalType": "uint256",
          "name": "tokenId",
          "type": "uint256"
        },
        {
          "indexed": false,
          "internalType": "uint256",
          "name": "Price",
          "type": "uint256"
        },
        {
          "indexed": false,
          "internalType": "uint256",
          "name": "Endtime",
          "type": "uint256"
        }
      ],
      "name": "offerDeleted",
      "type": "event"
    },
    {
      "anonymous": false,
      "inputs": [
        {
          "indexed": true,
          "internalType": "address",
          "name": "offerer",
          "type": "address"
        },
        {
          "indexed": true,
          "internalType": "address",
          "name": "owner",
          "type": "address"
        },
        {
          "indexed": true,
          "internalType": "address",
          "name": "collectionAddress",
          "type": "address"
        },
        {
          "indexed": false,
          "internalType": "uint256",
          "name": "tokenId",
          "type": "uint256"
        },
        {
          "indexed": false,
          "internalType": "uint256",
          "name": "Price",
          "type": "uint256"
        },
        {
          "indexed": false,
          "internalType": "uint256",
          "name": "Endtime",
          "type": "uint256"
        }
      ],
      "name": "offerUpdated",
      "type": "event"
    },
    {
      "anonymous": false,
      "inputs": [
        {
          "indexed": true,
          "internalType": "address",
          "name": "owner",
          "type": "address"
        },
        {
          "indexed": true,
          "internalType": "address",
          "name": "collectionAddress",
          "type": "address"
        },
        {
          "indexed": false,
          "internalType": "uint256",
          "name": "tokenId",
          "type": "uint256"
        },
        {
          "indexed": false,
          "internalType": "uint256",
          "name": "listingPrice",
          "type": "uint256"
        }
      ],
      "name": "updatedListing",
      "type": "event"
    },
    {
      "inputs": [
        {
          "internalType": "address",
          "name": "offerer",
          "type": "address"
        },
        {
          "internalType": "address",
          "name": "collectionAddress",
          "type": "address"
        },
        {
          "internalType": "uint256",
          "name": "tokenId",
          "type": "uint256"
        }
      ],
      "name": "acceptOffer",
      "outputs": [],
      "stateMutability": "payable",
      "type": "function"
    },
    {
      "inputs": [
        {
          "internalType": "address",
          "name": "collectionAddress",
          "type": "address"
        },
        {
          "internalType": "uint256",
          "name": "tokenId",
          "type": "uint256"
        }
      ],
      "name": "buyListing",
      "outputs": [],
      "stateMutability": "payable",
      "type": "function"
    },
    {
      "inputs": [
        {
          "internalType": "address",
          "name": "collectionAddress",
          "type": "address"
        },
        {
          "internalType": "uint256",
          "name": "tokenId",
          "type": "uint256"
        }
      ],
      "name": "cancleListing",
      "outputs": [],
      "stateMutability": "nonpayable",
      "type": "function"
    },
    {
      "inputs": [
        {
          "internalType": "address",
          "name": "collectionAddress",
          "type": "address"
        },
        {
          "internalType": "uint256",
          "name": "tokenId",
          "type": "uint256"
        }
      ],
      "name": "cancleOffer",
      "outputs": [],
      "stateMutability": "payable",
      "type": "function"
    },
    {
      "inputs": [
        {
          "internalType": "address",
          "name": "collectionAddress",
          "type": "address"
        },
        {
          "internalType": "uint256",
          "name": "tokenId",
          "type": "uint256"
        },
        {
          "internalType": "uint256",
          "name": "listingPrice",
          "type": "uint256"
        }
      ],
      "name": "createListing",
      "outputs": [],
      "stateMutability": "nonpayable",
      "type": "function"
    },
    {
      "inputs": [
        {
          "internalType": "address",
          "name": "collectionAddress",
          "type": "address"
        },
        {
          "internalType": "uint256",
          "name": "tokenId",
          "type": "uint256"
        },
        {
          "internalType": "uint256",
          "name": "Price",
          "type": "uint256"
        },
        {
          "internalType": "uint256",
          "name": "duration",
          "type": "uint256"
        }
      ],
      "name": "createOffer",
      "outputs": [],
      "stateMutability": "payable",
      "type": "function"
    },
    {
      "inputs": [
        {
          "internalType": "address",
          "name": "offerer",
          "type": "address"
        },
        {
          "internalType": "address",
          "name": "collectionAddress",
          "type": "address"
        },
        {
          "internalType": "uint256",
          "name": "tokenId",
          "type": "uint256"
        }
      ],
      "name": "cronJobOfferGarbageClean",
      "outputs": [],
      "stateMutability": "payable",
      "type": "function"
    },
    {
      "inputs": [
        {
          "internalType": "address",
          "name": "offerer",
          "type": "address"
        },
        {
          "internalType": "address",
          "name": "collectionAddress",
          "type": "address"
        },
        {
          "internalType": "uint256",
          "name": "tokenId",
          "type": "uint256"
        }
      ],
      "name": "declineOffer",
      "outputs": [],
      "stateMutability": "payable",
      "type": "function"
    },
    {
      "inputs": [],
      "name": "getcron",
      "outputs": [
        {
          "internalType": "address",
          "name": "",
          "type": "address"
        }
      ],
      "stateMutability": "nonpayable",
      "type": "function"
    },
    {
      "inputs": [
        {
          "internalType": "address",
          "name": "newcron",
          "type": "address"
        }
      ],
      "name": "setcron",
      "outputs": [],
      "stateMutability": "nonpayable",
      "type": "function"
    },
    {
      "inputs": [
        {
          "internalType": "address",
          "name": "collectionAddress",
          "type": "address"
        },
        {
          "internalType": "uint256",
          "name": "tokenId",
          "type": "uint256"
        },
        {
          "internalType": "uint256",
          "name": "listingPrice",
          "type": "uint256"
        }
      ],
      "name": "updateListing",
      "outputs": [],
      "stateMutability": "nonpayable",
      "type": "function"
    },
    {
      "inputs": [
        {
          "internalType": "address",
          "name": "collectionAddress",
          "type": "address"
        },
        {
          "internalType": "uint256",
          "name": "tokenId",
          "type": "uint256"
        },
        {
          "internalType": "uint256",
          "name": "Price",
          "type": "uint256"
        },
        {
          "internalType": "uint256",
          "name": "duration",
          "type": "uint256"
        }
      ],
      "name": "updateOffer",
      "outputs": [],
      "stateMutability": "payable",
      "type": "function"
    }
  ],
  "transactionHash": "0x429beebc9e5b9e4bcb8fd14d77d5017107e7b7db5bb38ebed9247f8430cf0a63",
  "args": [],
  "numDeployments": 3,
  "solcInputHash": "76dbad5f3410510fbba2791212295d6d",
  "bytecode": "0x608060405234801561001057600080fd5b50336000806101000a81548173ffffffffffffffffffffffffffffffffffffffff021916908373ffffffffffffffffffffffffffffffffffffffff160217905550613b09806100606000396000f3fe6080604052600436106100a75760003560e01c80638828929011610064578063882892901461017d578063bec43aed14610199578063c7fff719146101b5578063d898aaf2146101d1578063e66925a4146101ed578063f772adf114610216576100a7565b80630c97fa64146100ac5780631821e7c6146100c857806324780c56146100e45780632818f6061461010d5780636b357a5f146101295780637899f7f514610152575b600080fd5b6100c660048036038101906100c19190612ccc565b61023f565b005b6100e260048036038101906100dd9190612d0c565b610692565b005b3480156100f057600080fd5b5061010b60048036038101906101069190612d5f565b610bf0565b005b61012760048036038101906101229190612ccc565b6110ac565b005b34801561013557600080fd5b50610150600480360381019061014b9190612db2565b61141c565b005b34801561015e57600080fd5b506101676114ee565b6040516101749190612dee565b60405180910390f35b61019760048036038101906101929190612d0c565b6115a7565b005b6101b360048036038101906101ae9190612d0c565b611915565b005b6101cf60048036038101906101ca9190612e09565b611c89565b005b6101eb60048036038101906101e69190612e09565b6120d6565b005b3480156101f957600080fd5b50610214600480360381019061020f9190612ccc565b612492565b005b34801561022257600080fd5b5061023d60048036038101906102389190612d5f565b612700565b005b60008273ffffffffffffffffffffffffffffffffffffffff16636352211e836040518263ffffffff1660e01b815260040161027a9190612e7f565b602060405180830381865afa158015610297573d6000803e3d6000fd5b505050506040513d601f19601f820116820180604052508101906102bb9190612eaf565b90506000600260008373ffffffffffffffffffffffffffffffffffffffff1673ffffffffffffffffffffffffffffffffffffffff16815260200190815260200160002060008573ffffffffffffffffffffffffffffffffffffffff1673ffffffffffffffffffffffffffffffffffffffff1681526020019081526020016000206000848152602001908152602001600020604051806040016040529081600082015481526020016001820160009054906101000a900460ff1615151515815250509050600073ffffffffffffffffffffffffffffffffffffffff168273ffffffffffffffffffffffffffffffffffffffff16036103ed576040517f08c379a00000000000000000000000000000000000000000000000000000000081526004016103e490612f5f565b60405180910390fd5b6000816000015103610434576040517f08c379a000000000000000000000000000000000000000000000000000000000815260040161042b90612ff1565b60405180910390fd5b60011515816020015115151461047f576040517f08c379a0000000000000000000000000000000000000000000000000000000008152600401610476906130a9565b60405180910390fd5b80600001513410156104c6576040517f08c379a00000000000000000000000000000000000000000000000000000000081526004016104bd9061313b565b60405180910390fd5b8373ffffffffffffffffffffffffffffffffffffffff166323b872dd8333866040518463ffffffff1660e01b81526004016105039392919061315b565b600060405180830381600087803b15801561051d57600080fd5b505af1158015610531573d6000803e3d6000fd5b505050508173ffffffffffffffffffffffffffffffffffffffff166108fc349081150290604051600060405180830381858888f1935050505015801561057b573d6000803e3d6000fd5b506000600260003373ffffffffffffffffffffffffffffffffffffffff1673ffffffffffffffffffffffffffffffffffffffff16815260200190815260200160002060008673ffffffffffffffffffffffffffffffffffffffff1673ffffffffffffffffffffffffffffffffffffffff168152602001908152602001600020600085815260200190815260200160002060010160006101000a81548160ff0219169083151502179055508373ffffffffffffffffffffffffffffffffffffffff163373ffffffffffffffffffffffffffffffffffffffff167f40e5f6158086a011d9ea71b243b2186eb0db1d65009b391204d6b63c30cc88be8534604051610684929190613192565b60405180910390a350505050565b60008273ffffffffffffffffffffffffffffffffffffffff16636352211e836040518263ffffffff1660e01b81526004016106cd9190612e7f565b602060405180830381865afa1580156106ea573d6000803e3d6000fd5b505050506040513d601f19601f8201168201806040525081019061070e9190612eaf565b9050600073ffffffffffffffffffffffffffffffffffffffff168173ffffffffffffffffffffffffffffffffffffffff160361077f576040517f08c379a000000000000000000000000000000000000000000000000000000000815260040161077690612f5f565b60405180910390fd5b3373ffffffffffffffffffffffffffffffffffffffff168173ffffffffffffffffffffffffffffffffffffffff16146107ed576040517f08c379a00000000000000000000000000000000000000000000000000000000081526004016107e49061322d565b60405180910390fd5b8273ffffffffffffffffffffffffffffffffffffffff1663e985e9c533306040518363ffffffff1660e01b815260040161082892919061324d565b602060405180830381865afa158015610845573d6000803e3d6000fd5b505050506040513d601f19601f8201168201806040525081019061086991906132ae565b8061091857503073ffffffffffffffffffffffffffffffffffffffff168373ffffffffffffffffffffffffffffffffffffffff1663081812fc846040518263ffffffff1660e01b81526004016108bf9190612e7f565b602060405180830381865afa1580156108dc573d6000803e3d6000fd5b505050506040513d601f19601f820116820180604052508101906109009190612eaf565b73ffffffffffffffffffffffffffffffffffffffff16145b610957576040517f08c379a000000000000000000000000000000000000000000000000000000000815260040161094e9061334d565b60405180910390fd5b8273ffffffffffffffffffffffffffffffffffffffff166323b872dd3386856040518463ffffffff1660e01b81526004016109949392919061315b565b600060405180830381600087803b1580156109ae57600080fd5b505af11580156109c2573d6000803e3d6000fd5b505050506000600360008673ffffffffffffffffffffffffffffffffffffffff1673ffffffffffffffffffffffffffffffffffffffff16815260200190815260200160002060008573ffffffffffffffffffffffffffffffffffffffff1673ffffffffffffffffffffffffffffffffffffffff16815260200190815260200160002060008481526020019081526020016000206040518060400160405290816000820154815260200160018201548152505090508173ffffffffffffffffffffffffffffffffffffffff166108fc82600001519081150290604051600060405180830381858888f19350505050158015610ac0573d6000803e3d6000fd5b508373ffffffffffffffffffffffffffffffffffffffff168273ffffffffffffffffffffffffffffffffffffffff168673ffffffffffffffffffffffffffffffffffffffff167f9f2792492e26239e232cf718fa1efbfa8fa5bff8f09dee0bc52ed4b854a6c5508685600001518660200151604051610b419392919061336d565b60405180910390a4600360008673ffffffffffffffffffffffffffffffffffffffff1673ffffffffffffffffffffffffffffffffffffffff16815260200190815260200160002060008573ffffffffffffffffffffffffffffffffffffffff1673ffffffffffffffffffffffffffffffffffffffff1681526020019081526020016000206000848152602001908152602001600020600080820160009055600182016000905550505050505050565b60008373ffffffffffffffffffffffffffffffffffffffff16636352211e846040518263ffffffff1660e01b8152600401610c2b9190612e7f565b602060405180830381865afa158015610c48573d6000803e3d6000fd5b505050506040513d601f19601f82011682018060405250810190610c6c9190612eaf565b9050600073ffffffffffffffffffffffffffffffffffffffff168173ffffffffffffffffffffffffffffffffffffffff1603610cdd576040517f08c379a0000000000000000000000000000000000000000000000000000000008152600401610cd490612f5f565b60405180910390fd5b3373ffffffffffffffffffffffffffffffffffffffff168173ffffffffffffffffffffffffffffffffffffffff1614610d4b576040517f08c379a0000000000000000000000000000000000000000000000000000000008152600401610d429061322d565b60405180910390fd5b8373ffffffffffffffffffffffffffffffffffffffff1663e985e9c533306040518363ffffffff1660e01b8152600401610d8692919061324d565b602060405180830381865afa158015610da3573d6000803e3d6000fd5b505050506040513d601f19601f82011682018060405250810190610dc791906132ae565b80610e7657503073ffffffffffffffffffffffffffffffffffffffff168473ffffffffffffffffffffffffffffffffffffffff1663081812fc856040518263ffffffff1660e01b8152600401610e1d9190612e7f565b602060405180830381865afa158015610e3a573d6000803e3d6000fd5b505050506040513d601f19601f82011682018060405250810190610e5e9190612eaf565b73ffffffffffffffffffffffffffffffffffffffff16145b610eb5576040517f08c379a0000000000000000000000000000000000000000000000000000000008152600401610eac90613416565b60405180910390fd5b6000600260003373ffffffffffffffffffffffffffffffffffffffff1673ffffffffffffffffffffffffffffffffffffffff16815260200190815260200160002060008673ffffffffffffffffffffffffffffffffffffffff1673ffffffffffffffffffffffffffffffffffffffff1681526020019081526020016000206000858152602001908152602001600020604051806040016040529081600082015481526020016001820160009054906101000a900460ff16151515158152505090506000816000015103610f9457610f8f8585856001612ab0565b61103e565b6001600260003373ffffffffffffffffffffffffffffffffffffffff1673ffffffffffffffffffffffffffffffffffffffff16815260200190815260200160002060008773ffffffffffffffffffffffffffffffffffffffff1673ffffffffffffffffffffffffffffffffffffffff168152602001908152602001600020600086815260200190815260200160002060010160006101000a81548160ff0219169083151502179055505b8473ffffffffffffffffffffffffffffffffffffffff163373ffffffffffffffffffffffffffffffffffffffff167fa19587a42ce29a49cd5688dc4195852bd3715cfd106457f0efa941f424261917868660405161109d929190613192565b60405180910390a35050505050565b6000600360003373ffffffffffffffffffffffffffffffffffffffff1673ffffffffffffffffffffffffffffffffffffffff16815260200190815260200160002060008473ffffffffffffffffffffffffffffffffffffffff1673ffffffffffffffffffffffffffffffffffffffff1681526020019081526020016000206000838152602001908152602001600020600001540361117f576040517f08c379a000000000000000000000000000000000000000000000000000000000815260040161117690613482565b60405180910390fd5b3373ffffffffffffffffffffffffffffffffffffffff166108fc600360003373ffffffffffffffffffffffffffffffffffffffff1673ffffffffffffffffffffffffffffffffffffffff16815260200190815260200160002060008573ffffffffffffffffffffffffffffffffffffffff1673ffffffffffffffffffffffffffffffffffffffff1681526020019081526020016000206000848152602001908152602001600020600001549081150290604051600060405180830381858888f19350505050158015611255573d6000803e3d6000fd5b506000600360003373ffffffffffffffffffffffffffffffffffffffff1673ffffffffffffffffffffffffffffffffffffffff16815260200190815260200160002060008473ffffffffffffffffffffffffffffffffffffffff1673ffffffffffffffffffffffffffffffffffffffff16815260200190815260200160002060008381526020019081526020016000206040518060400160405290816000820154815260200160018201548152505090508273ffffffffffffffffffffffffffffffffffffffff163373ffffffffffffffffffffffffffffffffffffffff167f08660f588fc25793ac41742db995a846d8c9edaf116f11f92f983909eb74245e848460000151856020015160405161136f9392919061336d565b60405180910390a3600360003373ffffffffffffffffffffffffffffffffffffffff1673ffffffffffffffffffffffffffffffffffffffff16815260200190815260200160002060008473ffffffffffffffffffffffffffffffffffffffff1673ffffffffffffffffffffffffffffffffffffffff168152602001908152602001600020600083815260200190815260200160002060008082016000905560018201600090555050505050565b60008054906101000a900473ffffffffffffffffffffffffffffffffffffffff1673ffffffffffffffffffffffffffffffffffffffff163373ffffffffffffffffffffffffffffffffffffffff16146114aa576040517f08c379a00000000000000000000000000000000000000000000000000000000081526004016114a190613514565b60405180910390fd5b80600160006101000a81548173ffffffffffffffffffffffffffffffffffffffff021916908373ffffffffffffffffffffffffffffffffffffffff16021790555050565b60008060009054906101000a900473ffffffffffffffffffffffffffffffffffffffff1673ffffffffffffffffffffffffffffffffffffffff163373ffffffffffffffffffffffffffffffffffffffff161461157f576040517f08c379a000000000000000000000000000000000000000000000000000000000815260040161157690613514565b60405180910390fd5b600160009054906101000a900473ffffffffffffffffffffffffffffffffffffffff16905090565b60008273ffffffffffffffffffffffffffffffffffffffff16636352211e836040518263ffffffff1660e01b81526004016115e29190612e7f565b602060405180830381865afa1580156115ff573d6000803e3d6000fd5b505050506040513d601f19601f820116820180604052508101906116239190612eaf565b9050600073ffffffffffffffffffffffffffffffffffffffff168173ffffffffffffffffffffffffffffffffffffffff1603611694576040517f08c379a000000000000000000000000000000000000000000000000000000000815260040161168b90612f5f565b60405180910390fd5b3373ffffffffffffffffffffffffffffffffffffffff168173ffffffffffffffffffffffffffffffffffffffff1614611702576040517f08c379a00000000000000000000000000000000000000000000000000000000081526004016116f99061322d565b60405180910390fd5b6000600360008673ffffffffffffffffffffffffffffffffffffffff1673ffffffffffffffffffffffffffffffffffffffff16815260200190815260200160002060008573ffffffffffffffffffffffffffffffffffffffff1673ffffffffffffffffffffffffffffffffffffffff16815260200190815260200160002060008481526020019081526020016000206040518060400160405290816000820154815260200160018201548152505090508473ffffffffffffffffffffffffffffffffffffffff166108fc82600001519081150290604051600060405180830381858888f193505050501580156117fc573d6000803e3d6000fd5b508373ffffffffffffffffffffffffffffffffffffffff168573ffffffffffffffffffffffffffffffffffffffff167f08660f588fc25793ac41742db995a846d8c9edaf116f11f92f983909eb74245e85846000015185602001516040516118669392919061336d565b60405180910390a3600360008673ffffffffffffffffffffffffffffffffffffffff1673ffffffffffffffffffffffffffffffffffffffff16815260200190815260200160002060008573ffffffffffffffffffffffffffffffffffffffff1673ffffffffffffffffffffffffffffffffffffffff1681526020019081526020016000206000848152602001908152602001600020600080820160009055600182016000905550505050505050565b600160009054906101000a900473ffffffffffffffffffffffffffffffffffffffff1673ffffffffffffffffffffffffffffffffffffffff163373ffffffffffffffffffffffffffffffffffffffff16146119a5576040517f08c379a000000000000000000000000000000000000000000000000000000000815260040161199c906135a6565b60405180910390fd5b42600360003373ffffffffffffffffffffffffffffffffffffffff1673ffffffffffffffffffffffffffffffffffffffff16815260200190815260200160002060008473ffffffffffffffffffffffffffffffffffffffff1673ffffffffffffffffffffffffffffffffffffffff16815260200190815260200160002060008381526020019081526020016000206001015411611a77576040517f08c379a0000000000000000000000000000000000000000000000000000000008152600401611a6e90613612565b60405180910390fd5b6000600360008573ffffffffffffffffffffffffffffffffffffffff1673ffffffffffffffffffffffffffffffffffffffff16815260200190815260200160002060008473ffffffffffffffffffffffffffffffffffffffff1673ffffffffffffffffffffffffffffffffffffffff16815260200190815260200160002060008381526020019081526020016000206040518060400160405290816000820154815260200160018201548152505090508373ffffffffffffffffffffffffffffffffffffffff166108fc82600001519081150290604051600060405180830381858888f19350505050158015611b71573d6000803e3d6000fd5b508273ffffffffffffffffffffffffffffffffffffffff163373ffffffffffffffffffffffffffffffffffffffff167f08660f588fc25793ac41742db995a846d8c9edaf116f11f92f983909eb74245e8484600001518560200151604051611bdb9392919061336d565b60405180910390a3600360003373ffffffffffffffffffffffffffffffffffffffff1673ffffffffffffffffffffffffffffffffffffffff16815260200190815260200160002060008473ffffffffffffffffffffffffffffffffffffffff1673ffffffffffffffffffffffffffffffffffffffff16815260200190815260200160002060008381526020019081526020016000206000808201600090556001820160009055505050505050565b813414611ccb576040517f08c379a0000000000000000000000000000000000000000000000000000000008152600401611cc2906136a4565b60405180910390fd5b60008473ffffffffffffffffffffffffffffffffffffffff16636352211e856040518263ffffffff1660e01b8152600401611d069190612e7f565b602060405180830381865afa158015611d23573d6000803e3d6000fd5b505050506040513d601f19601f82011682018060405250810190611d479190612eaf565b9050620151808211611d8e576040517f08c379a0000000000000000000000000000000000000000000000000000000008152600401611d8590613736565b60405180910390fd5b8073ffffffffffffffffffffffffffffffffffffffff163373ffffffffffffffffffffffffffffffffffffffff1603611dfc576040517f08c379a0000000000000000000000000000000000000000000000000000000008152600401611df3906137a2565b60405180910390fd5b6000600360003373ffffffffffffffffffffffffffffffffffffffff1673ffffffffffffffffffffffffffffffffffffffff16815260200190815260200160002060008773ffffffffffffffffffffffffffffffffffffffff1673ffffffffffffffffffffffffffffffffffffffff16815260200190815260200160002060008681526020019081526020016000206040518060400160405290816000820154815260200160018201548152505090506000816000015103611ef3576040517f08c379a0000000000000000000000000000000000000000000000000000000008152600401611eea9061380e565b60405180910390fd5b83816000015103611f39576040517f08c379a0000000000000000000000000000000000000000000000000000000008152600401611f30906138a0565b60405180910390fd5b3373ffffffffffffffffffffffffffffffffffffffff166108fc82600001519081150290604051600060405180830381858888f19350505050158015611f83573d6000803e3d6000fd5b5060008342611f9291906138ef565b9050604051806040016040528086815260200182815250600360003373ffffffffffffffffffffffffffffffffffffffff1673ffffffffffffffffffffffffffffffffffffffff16815260200190815260200160002060008973ffffffffffffffffffffffffffffffffffffffff1673ffffffffffffffffffffffffffffffffffffffff168152602001908152602001600020600088815260200190815260200160002060008201518160000155602082015181600101559050508673ffffffffffffffffffffffffffffffffffffffff168373ffffffffffffffffffffffffffffffffffffffff163373ffffffffffffffffffffffffffffffffffffffff167f507d65526d219911d8a6a59800ffedc9d94f6050985e018e2855f6ef3adb3ecf8989866040516120c59392919061336d565b60405180910390a450505050505050565b813414612118576040517f08c379a000000000000000000000000000000000000000000000000000000000815260040161210f906136a4565b60405180910390fd5b60008473ffffffffffffffffffffffffffffffffffffffff16636352211e856040518263ffffffff1660e01b81526004016121539190612e7f565b602060405180830381865afa158015612170573d6000803e3d6000fd5b505050506040513d601f19601f820116820180604052508101906121949190612eaf565b90506201518082116121db576040517f08c379a00000000000000000000000000000000000000000000000000000000081526004016121d290613736565b60405180910390fd5b8073ffffffffffffffffffffffffffffffffffffffff163373ffffffffffffffffffffffffffffffffffffffff1603612249576040517f08c379a0000000000000000000000000000000000000000000000000000000008152600401612240906137a2565b60405180910390fd5b6000600360003373ffffffffffffffffffffffffffffffffffffffff1673ffffffffffffffffffffffffffffffffffffffff16815260200190815260200160002060008773ffffffffffffffffffffffffffffffffffffffff1673ffffffffffffffffffffffffffffffffffffffff16815260200190815260200160002060008681526020019081526020016000206040518060400160405290816000820154815260200160018201548152505090506000816000015114612340576040517f08c379a000000000000000000000000000000000000000000000000000000000815260040161233790613995565b60405180910390fd5b6000834261234e91906138ef565b9050604051806040016040528086815260200182815250600360003373ffffffffffffffffffffffffffffffffffffffff1673ffffffffffffffffffffffffffffffffffffffff16815260200190815260200160002060008973ffffffffffffffffffffffffffffffffffffffff1673ffffffffffffffffffffffffffffffffffffffff168152602001908152602001600020600088815260200190815260200160002060008201518160000155602082015181600101559050508673ffffffffffffffffffffffffffffffffffffffff168373ffffffffffffffffffffffffffffffffffffffff163373ffffffffffffffffffffffffffffffffffffffff167fc20226fb93aff6fe0737aeb13e75587febcb92c43086218c2417e5d30d9c6e8c8989866040516124819392919061336d565b60405180910390a450505050505050565b60008273ffffffffffffffffffffffffffffffffffffffff16636352211e836040518263ffffffff1660e01b81526004016124cd9190612e7f565b602060405180830381865afa1580156124ea573d6000803e3d6000fd5b505050506040513d601f19601f8201168201806040525081019061250e9190612eaf565b9050600073ffffffffffffffffffffffffffffffffffffffff168173ffffffffffffffffffffffffffffffffffffffff160361257f576040517f08c379a000000000000000000000000000000000000000000000000000000000815260040161257690612f5f565b60405180910390fd5b3373ffffffffffffffffffffffffffffffffffffffff168173ffffffffffffffffffffffffffffffffffffffff16146125ed576040517f08c379a00000000000000000000000000000000000000000000000000000000081526004016125e49061322d565b60405180910390fd5b6000600260003373ffffffffffffffffffffffffffffffffffffffff1673ffffffffffffffffffffffffffffffffffffffff16815260200190815260200160002060008573ffffffffffffffffffffffffffffffffffffffff1673ffffffffffffffffffffffffffffffffffffffff168152602001908152602001600020600084815260200190815260200160002060010160006101000a81548160ff0219169083151502179055508273ffffffffffffffffffffffffffffffffffffffff163373ffffffffffffffffffffffffffffffffffffffff167f84d6ebcf83e7020b761ccd1bf82e31a20c8d557d852fe4dcef4e7c0f232b2386846040516126f39190612e7f565b60405180910390a3505050565b60008373ffffffffffffffffffffffffffffffffffffffff16636352211e846040518263ffffffff1660e01b815260040161273b9190612e7f565b602060405180830381865afa158015612758573d6000803e3d6000fd5b505050506040513d601f19601f8201168201806040525081019061277c9190612eaf565b9050600073ffffffffffffffffffffffffffffffffffffffff168173ffffffffffffffffffffffffffffffffffffffff16036127ed576040517f08c379a00000000000000000000000000000000000000000000000000000000081526004016127e490612f5f565b60405180910390fd5b3373ffffffffffffffffffffffffffffffffffffffff168173ffffffffffffffffffffffffffffffffffffffff161461285b576040517f08c379a00000000000000000000000000000000000000000000000000000000081526004016128529061322d565b60405180910390fd5b6000600260003373ffffffffffffffffffffffffffffffffffffffff1673ffffffffffffffffffffffffffffffffffffffff16815260200190815260200160002060008673ffffffffffffffffffffffffffffffffffffffff1673ffffffffffffffffffffffffffffffffffffffff1681526020019081526020016000206000858152602001908152602001600020604051806040016040529081600082015481526020016001820160009054906101000a900460ff1615151515815250509050600115158160200151151514612967576040517f08c379a000000000000000000000000000000000000000000000000000000000815260040161295e90613416565b60405180910390fd5b828160000151036129ad576040517f08c379a00000000000000000000000000000000000000000000000000000000081526004016129a490613a01565b60405180910390fd5b82600260003373ffffffffffffffffffffffffffffffffffffffff1673ffffffffffffffffffffffffffffffffffffffff16815260200190815260200160002060008773ffffffffffffffffffffffffffffffffffffffff1673ffffffffffffffffffffffffffffffffffffffff1681526020019081526020016000206000868152602001908152602001600020600001819055508473ffffffffffffffffffffffffffffffffffffffff163373ffffffffffffffffffffffffffffffffffffffff167fdbf7c40bb28b7d0f424d836b8f3926f8c6042f96b34357b05790bbf4b52d35678686604051612aa1929190613192565b60405180910390a35050505050565b60008211612af3576040517f08c379a0000000000000000000000000000000000000000000000000000000008152600401612aea90613a6d565b60405180910390fd5b6040518060400160405280838152602001821515815250600260003373ffffffffffffffffffffffffffffffffffffffff1673ffffffffffffffffffffffffffffffffffffffff16815260200190815260200160002060008673ffffffffffffffffffffffffffffffffffffffff1673ffffffffffffffffffffffffffffffffffffffff16815260200190815260200160002060008581526020019081526020016000206000820151816000015560208201518160010160006101000a81548160ff0219169083151502179055509050508373ffffffffffffffffffffffffffffffffffffffff163373ffffffffffffffffffffffffffffffffffffffff167f85485f7fa80515e3e3f4dd0b33a53c114678f4dbad2532605530c9ac6b5eaaee858585604051612c2593929190613a9c565b60405180910390a350505050565b600080fd5b600073ffffffffffffffffffffffffffffffffffffffff82169050919050565b6000612c6382612c38565b9050919050565b612c7381612c58565b8114612c7e57600080fd5b50565b600081359050612c9081612c6a565b92915050565b6000819050919050565b612ca981612c96565b8114612cb457600080fd5b50565b600081359050612cc681612ca0565b92915050565b60008060408385031215612ce357612ce2612c33565b5b6000612cf185828601612c81565b9250506020612d0285828601612cb7565b9150509250929050565b600080600060608486031215612d2557612d24612c33565b5b6000612d3386828701612c81565b9350506020612d4486828701612c81565b9250506040612d5586828701612cb7565b9150509250925092565b600080600060608486031215612d7857612d77612c33565b5b6000612d8686828701612c81565b9350506020612d9786828701612cb7565b9250506040612da886828701612cb7565b9150509250925092565b600060208284031215612dc857612dc7612c33565b5b6000612dd684828501612c81565b91505092915050565b612de881612c58565b82525050565b6000602082019050612e036000830184612ddf565b92915050565b60008060008060808587031215612e2357612e22612c33565b5b6000612e3187828801612c81565b9450506020612e4287828801612cb7565b9350506040612e5387828801612cb7565b9250506060612e6487828801612cb7565b91505092959194509250565b612e7981612c96565b82525050565b6000602082019050612e946000830184612e70565b92915050565b600081519050612ea981612c6a565b92915050565b600060208284031215612ec557612ec4612c33565b5b6000612ed384828501612e9a565b91505092915050565b600082825260208201905092915050565b7f4e465420646f65736e277420657869747320696e2074686520436f6c6c65637460008201527f696f6e206f72206f6e20426c6f636b636861696e000000000000000000000000602082015250565b6000612f49603483612edc565b9150612f5482612eed565b604082019050919050565b60006020820190508181036000830152612f7881612f3c565b9050919050565b7f4974656d206973206e6f74206c6973746564206f6e204d61726b6574706c616360008201527f6500000000000000000000000000000000000000000000000000000000000000602082015250565b6000612fdb602183612edc565b9150612fe682612f7f565b604082019050919050565b6000602082019050818103600083015261300a81612fce565b9050919050565b7f4d61726b6574706c616365206973206e6f7420616c6c6f77656420746f20736560008201527f6c6c207468697320746f6b6b656e206669727374206372656174656c6973746960208201527f6e67206f6e206d61726b6574706c616365000000000000000000000000000000604082015250565b6000613093605183612edc565b915061309e82613011565b606082019050919050565b600060208201905081810360008301526130c281613086565b9050919050565b7f416d6f756e742073656e64206973206c657373207468656e207468652050726960008201527f6365206f6620746865206974656d2e0000000000000000000000000000000000602082015250565b6000613125602f83612edc565b9150613130826130c9565b604082019050919050565b6000602082019050818103600083015261315481613118565b9050919050565b60006060820190506131706000830186612ddf565b61317d6020830185612ddf565b61318a6040830184612e70565b949350505050565b60006040820190506131a76000830185612e70565b6131b46020830184612e70565b9392505050565b7f55736572206973206e6f7420746865206f776e6572206f662074686520746f6b60008201527f6b656e0000000000000000000000000000000000000000000000000000000000602082015250565b6000613217602383612edc565b9150613222826131bb565b604082019050919050565b600060208201905081810360008301526132468161320a565b9050919050565b60006040820190506132626000830185612ddf565b61326f6020830184612ddf565b9392505050565b60008115159050919050565b61328b81613276565b811461329657600080fd5b50565b6000815190506132a881613282565b92915050565b6000602082840312156132c4576132c3612c33565b5b60006132d284828501613299565b91505092915050565b7f4d61726b6574706c616365206973206e6f7420617070726f76656420746f205460008201527f72616e73666572206974656d7300000000000000000000000000000000000000602082015250565b6000613337602d83612edc565b9150613342826132db565b604082019050919050565b600060208201905081810360008301526133668161332a565b9050919050565b60006060820190506133826000830186612e70565b61338f6020830185612e70565b61339c6040830184612e70565b949350505050565b7f4d61726b6574706c616365206973206e6f7420617070726f76656420746f206c60008201527f697374206974656d730000000000000000000000000000000000000000000000602082015250565b6000613400602983612edc565b915061340b826133a4565b604082019050919050565b6000602082019050818103600083015261342f816133f3565b9050919050565b7f546865206974656d20646f6573206e6f74206578697400000000000000000000600082015250565b600061346c601683612edc565b915061347782613436565b602082019050919050565b6000602082019050818103600083015261349b8161345f565b9050919050565b7f4f6e6c7920746865206f776e65722063616e2063616c6c20746869732066756e60008201527f6374696f6e000000000000000000000000000000000000000000000000000000602082015250565b60006134fe602583612edc565b9150613509826134a2565b604082019050919050565b6000602082019050818103600083015261352d816134f1565b9050919050565b7f4f6e6c79207468652063726f6e2063616e2063616c6c20746869732066756e6360008201527f74696f6e00000000000000000000000000000000000000000000000000000000602082015250565b6000613590602483612edc565b915061359b82613534565b604082019050919050565b600060208201905081810360008301526135bf81613583565b9050919050565b7f54696d6520686173206e6f7420656e6465640000000000000000000000000000600082015250565b60006135fc601283612edc565b9150613607826135c6565b602082019050919050565b6000602082019050818103600083015261362b816135ef565b9050919050565b7f416d6f756e742073656e64206d75737420626520657175616c20746f2074686560008201527f205072696365206f66204f666665720000000000000000000000000000000000602082015250565b600061368e602f83612edc565b915061369982613632565b604082019050919050565b600060208201905081810360008301526136bd81613681565b9050919050565b7f4475726174696f6e2063616e6e6f74206265206c657373207468616e2031204460008201527f6179210000000000000000000000000000000000000000000000000000000000602082015250565b6000613720602383612edc565b915061372b826136c4565b604082019050919050565b6000602082019050818103600083015261374f81613713565b9050919050565b7f4f776e65722063616e6e6f7420637265617465204f6666657200000000000000600082015250565b600061378c601983612edc565b915061379782613756565b602082019050919050565b600060208201905081810360008301526137bb8161377f565b9050919050565b7f637265617465206f666665722066697273740000000000000000000000000000600082015250565b60006137f8601283612edc565b9150613803826137c2565b602082019050919050565b60006020820190508181036000830152613827816137eb565b9050919050565b7f4f6666657220616c7265616479206d61646520776974682073616d652070726960008201527f6365000000000000000000000000000000000000000000000000000000000000602082015250565b600061388a602283612edc565b91506138958261382e565b604082019050919050565b600060208201905081810360008301526138b98161387d565b9050919050565b7f4e487b7100000000000000000000000000000000000000000000000000000000600052601160045260246000fd5b60006138fa82612c96565b915061390583612c96565b925082820190508082111561391d5761391c6138c0565b5b92915050565b7f4f6666657220616c7265616479206d616465206d7573742064656c657465207060008201527f7265696f7573204f666665720000000000000000000000000000000000000000602082015250565b600061397f602c83612edc565b915061398a82613923565b604082019050919050565b600060208201905081810360008301526139ae81613972565b9050919050565b7f4c697374696e672050726963652063616e6e6f742062652073616d6500000000600082015250565b60006139eb601c83612edc565b91506139f6826139b5565b602082019050919050565b60006020820190508181036000830152613a1a816139de565b9050919050565b7f5072696365206d7573742062652067726561746572207468616e207a65726f00600082015250565b6000613a57601f83612edc565b9150613a6282613a21565b602082019050919050565b60006020820190508181036000830152613a8681613a4a565b9050919050565b613a9681613276565b82525050565b6000606082019050613ab16000830186612e70565b613abe6020830185612e70565b613acb6040830184613a8d565b94935050505056fea2646970667358221220341e0462f7a640ec4b7f13aad9a472265b46001b8d923f9ff563224f7d33322c64736f6c63430008110033",
  "devdoc": {
    "kind": "dev",
    "methods": {},
    "version": 1
  },
  "userdoc": {
    "kind": "user",
    "methods": {},
    "version": 1
  },
  "storageLayout": {
    "storage": [
      {
        "astId": 132,
        "contract": "contracts/Marketplace.sol:ArtAlleyMarketplace",
        "label": "_owner",
        "offset": 0,
        "slot": "0",
        "type": "t_address"
      },
      {
        "astId": 134,
        "contract": "contracts/Marketplace.sol:ArtAlleyMarketplace",
        "label": "_cron",
        "offset": 0,
        "slot": "1",
        "type": "t_address"
      },
      {
        "astId": 186,
        "contract": "contracts/Marketplace.sol:ArtAlleyMarketplace",
        "label": "_s_marketplaceItem",
        "offset": 0,
        "slot": "2",
        "type": "t_mapping(t_address,t_mapping(t_address,t_mapping(t_uint256,t_struct(s_Marketpalceitem)172_storage)))"
      },
      {
        "astId": 195,
        "contract": "contracts/Marketplace.sol:ArtAlleyMarketplace",
        "label": "_s_marketplaceItemoffer",
        "offset": 0,
        "slot": "3",
        "type": "t_mapping(t_address,t_mapping(t_address,t_mapping(t_uint256,t_struct(s_Marketpalceoffer)177_storage)))"
      }
    ],
    "types": {
      "t_address": {
        "encoding": "inplace",
        "label": "address",
        "numberOfBytes": "20"
      },
      "t_bool": {
        "encoding": "inplace",
        "label": "bool",
        "numberOfBytes": "1"
      },
      "t_mapping(t_address,t_mapping(t_address,t_mapping(t_uint256,t_struct(s_Marketpalceitem)172_storage)))": {
        "encoding": "mapping",
        "key": "t_address",
        "label": "mapping(address => mapping(address => mapping(uint256 => struct ArtAlleyMarketplace.s_Marketpalceitem)))",
        "numberOfBytes": "32",
        "value": "t_mapping(t_address,t_mapping(t_uint256,t_struct(s_Marketpalceitem)172_storage))"
      },
      "t_mapping(t_address,t_mapping(t_address,t_mapping(t_uint256,t_struct(s_Marketpalceoffer)177_storage)))": {
        "encoding": "mapping",
        "key": "t_address",
        "label": "mapping(address => mapping(address => mapping(uint256 => struct ArtAlleyMarketplace.s_Marketpalceoffer)))",
        "numberOfBytes": "32",
        "value": "t_mapping(t_address,t_mapping(t_uint256,t_struct(s_Marketpalceoffer)177_storage))"
      },
      "t_mapping(t_address,t_mapping(t_uint256,t_struct(s_Marketpalceitem)172_storage))": {
        "encoding": "mapping",
        "key": "t_address",
        "label": "mapping(address => mapping(uint256 => struct ArtAlleyMarketplace.s_Marketpalceitem))",
        "numberOfBytes": "32",
        "value": "t_mapping(t_uint256,t_struct(s_Marketpalceitem)172_storage)"
      },
      "t_mapping(t_address,t_mapping(t_uint256,t_struct(s_Marketpalceoffer)177_storage))": {
        "encoding": "mapping",
        "key": "t_address",
        "label": "mapping(address => mapping(uint256 => struct ArtAlleyMarketplace.s_Marketpalceoffer))",
        "numberOfBytes": "32",
        "value": "t_mapping(t_uint256,t_struct(s_Marketpalceoffer)177_storage)"
      },
      "t_mapping(t_uint256,t_struct(s_Marketpalceitem)172_storage)": {
        "encoding": "mapping",
        "key": "t_uint256",
        "label": "mapping(uint256 => struct ArtAlleyMarketplace.s_Marketpalceitem)",
        "numberOfBytes": "32",
        "value": "t_struct(s_Marketpalceitem)172_storage"
      },
      "t_mapping(t_uint256,t_struct(s_Marketpalceoffer)177_storage)": {
        "encoding": "mapping",
        "key": "t_uint256",
        "label": "mapping(uint256 => struct ArtAlleyMarketplace.s_Marketpalceoffer)",
        "numberOfBytes": "32",
        "value": "t_struct(s_Marketpalceoffer)177_storage"
      },
      "t_struct(s_Marketpalceitem)172_storage": {
        "encoding": "inplace",
        "label": "struct ArtAlleyMarketplace.s_Marketpalceitem",
        "members": [
          {
            "astId": 169,
            "contract": "contracts/Marketplace.sol:ArtAlleyMarketplace",
            "label": "Price",
            "offset": 0,
            "slot": "0",
            "type": "t_uint256"
          },
          {
            "astId": 171,
            "contract": "contracts/Marketplace.sol:ArtAlleyMarketplace",
            "label": "approval",
            "offset": 0,
            "slot": "1",
            "type": "t_bool"
          }
        ],
        "numberOfBytes": "64"
      },
      "t_struct(s_Marketpalceoffer)177_storage": {
        "encoding": "inplace",
        "label": "struct ArtAlleyMarketplace.s_Marketpalceoffer",
        "members": [
          {
            "astId": 174,
            "contract": "contracts/Marketplace.sol:ArtAlleyMarketplace",
            "label": "Price",
            "offset": 0,
            "slot": "0",
            "type": "t_uint256"
          },
          {
            "astId": 176,
            "contract": "contracts/Marketplace.sol:ArtAlleyMarketplace",
            "label": "Endtime",
            "offset": 0,
            "slot": "1",
            "type": "t_uint256"
          }
        ],
        "numberOfBytes": "64"
      },
      "t_uint256": {
        "encoding": "inplace",
        "label": "uint256",
        "numberOfBytes": "32"
      }
    }
  }
}